:020000040040BA
:10000000600B4020A9044000A5044000A504400066
:10001000A5044000A5044000A50440000000000025
:10002000000000000000000000000000A5044000E7
:10003000A504400000000000A5044000A504400005
:10004000A5044000A5044000A5044000A50440000C
:10005000A5044000A5044000A5044000A5044000FC
:10006000A504400000000000A5044000A5044000D5
:10007000A5044000A5044000A5044000A5044000DC
:10008000A5044000A5044000A5044000A5044000CC
:10009000A5044000A5044000A50440004D06400012
:1000A000A5044000A5044000A5044000A5044000AC
:1000B000A50440001D064000A5064000A504400020
:1000C000A5044000A5044000A5044000A50440008C
:1000D000A5044000A5044000A5044000A50440007C
:1000E000A5044000A5044000A5044000A50440006C
:1000F000A5044000A5044000A5044000A50440005C
:10010000A5044000A5044000A5044000A50440004B
:10011000A5044000000000000000000000000000F6
:10012000A5044000A5044000A5044000A50440002B
:10013000A5044000A5044000A5044000A50440001B
:10014000A5044000A5044000A5044000A50440000B
:10015000A5044000A5044000A5044000A5044000FB
:10016000A5044000A504400010B5054C237833B920
:10017000044B13B10448AFF300800123237010BD7A
:1001800034044020000000000C1640000C4B43B12A
:100190000C480D4910B5AFF300800C48036823B933
:1001A00010BD0A48036833B97047094B002BF7D0DC
:1001B000BDE810401847064B002BF5D0184700BF8C
:1001C000000000000C164000380440200C164000CF
:1001D0000000000010B4164B1D22C3F80C21D3F808
:1001E0000C2142F01022C3F80C21124B01221A609C
:1001F000000280B21049014359604FF000719960CC
:100200004FF44371C3F89410002159664FF4007104
:10021000D9660A494FF00050C1F88001202481F8C6
:100220001D4308605A625A6102221A6010BC70476E
:1002300000060E4000C003400000842F00E100E0F3
:10024000454B0A22C3F80C21D3F80C2142F01022AE
:10025000C3F80C210B22C3F80C21D3F80C2142F077
:100260001022C3F80C210C22C3F80C21D3F80C2166
:1002700042F01022C3F80C211022C3F80C21D3F84D
:100280000C2142F01022C3F80C211122C3F80C21DA
:10029000D3F80C2142F01022C3F80C2103F540637F
:1002A0001A6942F480721A61D3F8A02042F4807275
:1002B000C3F8A0205A6B42F480725A631A6942F460
:1002C00080621A61D3F8A02042F48062C3F8A020B3
:1002D0005A6B42F480625A63A3F580635A6942F410
:1002E00000625A61D3F8A02042F40062C3F8A02053
:1002F0005A6E42F400625A66D3F8902042F40062CB
:10030000C3F890205A6D42F400625A651A6A42F4AA
:1003100000621A62D3F8842042F40062C3F8842099
:100320001A6F22F400621A675A6F22F400625A6749
:10033000D3F8C02042F40062C3F8C020D3F8D42020
:1003400042F40062C3F8D420D3F8B02042F4006233
:10035000C3F8B020704700BF00060E40F8B5324A1F
:10036000536843F400435360BFF34F8FBFF36F8F65
:100370002E4B0021C3F85012BFF34F8FBFF36F8F86
:100380005A6942F400325A61BFF34F8FBFF36F8F47
:10039000C3F88410BFF34F8FD3F88070C7F34E3586
:1003A000C7F3C9076E014FEA877C43F6E07E1C461F
:1003B00006EA0E0062463B4642EA0001C4F86012BB
:1003C000013B02F14042B3F1FF3FF5D1013D203E38
:1003D000B5F1FF3FECD1BFF34F8F144B5A6942F494
:1003E00080325A61BFF34F8FBFF36F8F104A1149AC
:1003F0005160A1F580715160BFF34F8FBFF36F8FD4
:10040000D3F8902222F00102C3F89022D3F894226C
:1004100022F00102C3F89422BFF34F8FBFF36F8F16
:10042000054B9847F8BD00BF50180E4000ED00E0A6
:10043000000C0E400C08005A41024000164B1E22D0
:10044000C3F80C21D3F80C2142F01022C3F80C2180
:10045000124B01211960D3F8E400114A0243C3F89A
:10046000E420D3F8E420C3F8E4205A6842F0706234
:100470005A609A689A60D3F8942042F00302C3F855
:1004800094209A69196112F4807F04D11A46936905
:1004900013F4807FFBD0704700060E40000004403C
:1004A00000434144FEE7000008B5174B174A9A4243
:1004B00010D0174B144A9A420CD2013B9B1A23F0DE
:1004C000030304331344114951F8040B42F8040B9D
:1004D0009A42F9D10F4B104A9A420AD2013B9B1A19
:1004E00023F0030304331344002142F8041B934216
:1004F000FBD10A4A0A4B23F07F039360094B9847CC
:10050000094B9847FEE700BF000040200C16400052
:1005100034044020600540203404402000ED00E019
:10052000000040000D124000B9054000014A024B96
:100530001A607047001BB700000040202DE9F84FFB
:10054000164901F1C808434653F8042D5A608B42FE
:10055000FAD1124C44F80409114DDFF858B0114F8C
:10056000114E55F8041F54F8040FD847B8470246F7
:100570000B4648465146B04781468A464445F0D12D
:100580000A4B5A6B42F480725A631A6B42F48072BF
:100590001A63074B9847BDE8F88F00BF500440200E
:1005A00078134000DD0A40002108400000120E4090
:1005B000850B4000410E400070B50E4B98470E4B26
:1005C00098470E4B98470E4B984703200D4B984782
:1005D0000D4B98470D4C0E4E0E4D2068B047606095
:1005E0000123A360606829460B4B98470028F4D08C
:1005F000002070BD2D054000250740005D03400030
:1006000095074000D50140003D0440001C054020F6
:100610003D05400000409C45B911400008B5084B1D
:100620001B6B13F0010F09D0054B986E054B9847D3
:10063000054B18600122DA6000229A6008BD00BFF5
:1006400000C00340910D40001C05402008B5104B30
:100650001B6813F0100F19D00E4BDB682BB1022270
:100660000D4B1A6000220B4BDA600C4B1B6B13F026
:10067000010F0BD0094B9B6913F4807F06D0054B0B
:100680005868074B984780B2044BD86108BD00BF3B
:1006900020C000401C05402000C003400000044072
:1006A000CD1140007047000010490B6A104A1A40F3
:1006B000104B13430B620A46936E13F0010FFBD0ED
:1006C0000A4A116A0C4B0B431362936E13F4803F7A
:1006D000FBD0064A536A13F4803FFBD0034B586AA1
:1006E00080B2B0FA80F04009704700BF00060E40AB
:1006F000FCC1C8FF013E370000003701084B4FF036
:1007000000529A6202F5C11202F5F85201329A6261
:100710001A46936E13F0020FFBD00020704700BF03
:1007200000060E4008B5154AD2F8883043F470032D
:10073000C2F88830BFF34F8FBFF36F8F104A114B51
:100740001A60114B9847114B9847114A136B23F4C9
:10075000407343F480731363936E13F0080FFBD060
:100760000B4A136B23F0030343F002031363936EEE
:1007700013F0080FFBD0002008BD00BF00ED00E023
:1007800000060004000C0E40A9064000FD064000D3
:1007900000060E401B4B4FF40002C3F880212021BD
:1007A00083F817131A60184BD3F80C2142F0170284
:1007B000C3F80C21D3F80C2142F01022C3F80C210D
:1007C000A3F55423A3F2FC531A6842F001021A6005
:1007D0000E490A6842F010020A601A6842F4804228
:1007E0001A60043B1A6842F001021A60BB21084AF1
:1007F00011601A6842F001021A601A6842F004029D
:100800001A60704700E100E000060E4024C000407E
:100810001CC0004081F0004102E000BF83F00043B3
:1008200030B54FEA41044FEA430594EA050F08BF8B
:1008300090EA020F1FBF54EA000C55EA020C7FEA4F
:10084000645C7FEA655C00F0E2804FEA5454D4EBCC
:100850005555B8BF6D420CDD2C4480EA020281EA96
:10086000030382EA000083EA010180EA020281EACE
:100870000303362D88BF30BD11F0004F4FEA013120
:100880004FF4801C4CEA113102D0404261EB41012F
:1008900013F0004F4FEA03334CEA133302D05242B5
:1008A00063EB430394EA050F00F0A780A4F1010471
:1008B000D5F1200E0DDB02FA0EFC22FA05F28018AB
:1008C00041F1000103FA0EF2801843FA05F3594191
:1008D0000EE0A5F120050EF1200E012A03FA0EFC10
:1008E00028BF4CF0020C43FA05F3C01851EBE3713A
:1008F00001F0004507D54FF0000EDCF1000C7EEB57
:1009000000006EEB0101B1F5801F1BD3B1F5001F94
:100910000CD349085FEA30004FEA3C0C04F10104B3
:100920004FEA445212F5800F80F09A80BCF1004FDC
:1009300008BF5FEA500C50F1000041EB045141EA5E
:10094000050130BD5FEA4C0C404141EB010111F45F
:10095000801FA4F10104E9D191F0000F04BF01460A
:100960000020B1FA81F308BF2033A3F10B03B3F1E8
:1009700020020CDA0C3208DD02F1140CC2F10C0278
:1009800001FA0CF021FA02F10CE002F11402D8BFD6
:10099000C2F1200C01FA02F120FA0CFCDCBF41EAA2
:1009A0000C019040E41AA2BF01EB0451294330BD71
:1009B0006FEA04041F3C1CDA0C340EDC04F114044E
:1009C000C4F1200220FA04F001FA02F340EA030025
:1009D00021FA04F345EA030130BDC4F10C04C4F16B
:1009E000200220FA02F001FA04F340EA030029464B
:1009F00030BD21FA04F0294630BD94F0000F83F495
:100A0000801306BF81F480110134013D4EE77FEA77
:100A1000645C18BF7FEA655C29D094EA050F08BFC3
:100A200090EA020F05D054EA000C04BF19461046A4
:100A300030BD91EA030F1EBF0021002030BD5FEAE8
:100A4000545C05D14000494128BF41F0004130BD10
:100A500014F580043CBF01F5801130BD01F0004564
:100A600045F0FE4141F470014FF0000030BD7FEAD7
:100A7000645C1ABF194610467FEA655C1CBF0B46D2
:100A8000024650EA013406BF52EA033591EA030FE9
:100A900041F4002130BD00BF90F0000F04BF0021E1
:100AA000704730B54FF4806404F132044FF0000514
:100AB0004FF0000150E700BF90F0000F04BF00218D
:100AC000704730B54FF4806404F1320410F00045F3
:100AD00048BF40424FF000013EE700BF42004FEAEE
:100AE000E2014FEA31014FEA02701FBF12F07F436B
:100AF00093F07F4F81F06051704792F0000F14BF68
:100B000093F07F4F704730B54FF4607401F00045AB
:100B100021F0004120E700BF50EA010208BF704702
:100B200030B54FF000050AE050EA010208BF7047F7
:100B300030B511F0004502D5404261EB41014FF460
:100B4000806404F132045FEA915C3FF4DCAE4FF064
:100B500003025FEADC0C18BF03325FEADC0C18BF4B
:100B6000033202EBDC02C2F1200300FA03FC20FA9C
:100B700002F001FA03FE40EA0E0021FA02F11444E9
:100B8000C1E600BF4FEA4102B2F1E04324BFB3F532
:100B9000001CDCF1FE5C0DD901F0004C4FEAC002F4
:100BA0004CEA5070B2F1004F40EB830008BF20F0D8
:100BB0000100704711F0804F21D113F13872BCBF92
:100BC00001F00040704741F480114FEA5252C2F1E7
:100BD0001802C2F1200C10FA0CF320FA02F018BF30
:100BE00040F001004FEAC1234FEAD32303FA0CFC83
:100BF00040EA0C0023FA02F34FEA4303CCE77FEA12
:100C0000625307D150EA01331EBF4FF0FE4040F45B
:100C10004000704701F0004040F0FE4040F400000A
:100C2000704700BF80F0004002E000BF81F000414B
:100C300042001FBF5FEA410392EA030F7FEA226C82
:100C40007FEA236C6AD04FEA1262D2EB1363C1BF12
:100C5000D218414048404140B8BF5B42192B88BF81
:100C6000704710F0004F40F4000020F07F4018BFA4
:100C7000404211F0004F41F4000121F07F4118BFC4
:100C8000494292EA030F3FD0A2F1010241FA03FC6C
:100C900010EB0C00C3F1200301FA03F100F0004354
:100CA00002D5494260EB4000B0F5000F13D3B0F11C
:100CB000807F06D340084FEA310102F10102FE2A8B
:100CC00051D2B1F1004F40EBC25008BF20F00100FB
:100CD00040EA03007047490040EB000010F4000FA9
:100CE000A2F10102EDD1B0FA80FCACF1080CB2EB3C
:100CF0000C0200FA0CF0AABF00EBC250524218439B
:100D0000BCBFD0401843704792F0000F81F400013F
:100D100006BF80F400000132013BB5E74FEA410312
:100D20007FEA226C18BF7FEA236C21D092EA030F7E
:100D300004D092F0000F08BF0846704790EA010FF8
:100D40001CBF0020704712F07F4F04D1400028BF25
:100D500040F00040704712F100723CBF00F5000007
:100D6000704700F0004343F0FE4040F4000070473D
:100D70007FEA226216BF08467FEA236301464202E9
:100D800006BF5FEA412390EA010F40F480007047FC
:100D90004FF0000304E000BF10F0004348BF4042A2
:100DA0005FEA000C08BF704743F0964301464FF0DE
:100DB00000001CE050EA010208BF70474FF000033A
:100DC0000AE000BF50EA010208BF704711F000437B
:100DD00002D5404261EB41015FEA010C02BF84464B
:100DE0000146002043F0B64308BFA3F18053A3F5AA
:100DF0000003BCFA8CF2083AA3EBC25310DB01FAF1
:100E000002FC634400FA02FCC2F12002BCF1004F74
:100E100020FA02F243EB020008BF20F00100704705
:100E200002F1200201FA02FCC2F1200250EA4C0059
:100E300021FA02F243EB020008BF20EADC7070479F
:100E40004FF0FF0C1CEAD0521EBF1CEAD15392EAAD
:100E50000C0F93EA0C0F6FD01A4480EA010C400289
:100E600018BF5FEA41211ED04FF0006343EA5010E3
:100E700043EA5111A0FB01310CF00040B1F5000F25
:100E80003EBF490041EAD3715B0040EA010062F1D4
:100E90007F02FD2A1DD8B3F1004F40EBC25008BFBE
:100EA00020F00100704790F0000F0CF0004C08BFDC
:100EB00049024CEA502040EA51207F3AC2BFD2F1A9
:100EC000FF0340EAC250704740F400004FF00003B7
:100ED000013A5DDC12F1190FDCBF00F000407047F1
:100EE000C2F10002410021FA02F1C2F1200200FA2F
:100EF00002FC5FEA310040F1000053EA4C0308BFF6
:100F000020EADC70704792F0000F00F0004C02BF46
:100F1000400010F4000F013AF9D040EA0C0093F0C1
:100F2000000F01F0004C02BF490011F4000F013B1B
:100F3000F9D041EA0C018FE70CEAD15392EA0C0F89
:100F400018BF93EA0C0F0AD030F0004C18BF31F0F4
:100F5000004CD8D180EA010000F00040704790F0CA
:100F6000000F17BF90F0004F084691F0000F91F06E
:100F7000004F14D092EA0C0F01D142020FD193EA34
:100F80000C0F03D14B0218BF084608D180EA0100BC
:100F900000F0004040F0FE4040F40000704740F098
:100FA000FE4040F4400070474FF0FF0C1CEAD05266
:100FB0001EBF1CEAD15392EA0C0F93EA0C0F69D0C2
:100FC000A2EB030280EA010C49024FEA402037D02D
:100FD0004FF0805343EA111143EA10130CF0004024
:100FE0008B4238BF5B0042F17D024FF4000C8B4214
:100FF00024BF5B1A40EA0C00B3EB510F24BFA3EBF4
:10100000510340EA5C00B3EB910F24BFA3EB9103C3
:1010100040EA9C00B3EBD10F24BFA3EBD10340EA1D
:10102000DC001B0118BF5FEA1C1CE0D1FD2A3FF663
:1010300050AF8B4240EBC25008BF20F00100704718
:101040000CF0004C4CEA50207F32C2BFD2F1FF03BB
:1010500040EAC250704740F400004FF00003013AEC
:1010600037E792F0000F00F0004C02BF400010F490
:10107000000F013AF9D040EA0C0093F0000F01F0A4
:10108000004C02BF490011F4000F013BF9D041EAC6
:101090000C0195E70CEAD15392EA0C0F08D14202F9
:1010A0007FF47DAF93EA0C0F7FF470AF084676E7CC
:1010B00093EA0C0F04D14B023FF44CAF08466EE7A5
:1010C00030F0004C18BF31F0004CCAD130F0004273
:1010D0007FF45CAF31F000437FF43CAF5FE700BFCB
:1010E0004FF0FF3C06E000BF4FF0010C02E000BFF4
:1010F0004FF0010C4DF804CD4FEA40024FEA410396
:101100007FEA226C18BF7FEA236C11D001B052EA4B
:10111000530C18BF90EA010F58BFB2EB030088BF11
:10112000C81738BF6FEAE17018BF40F00100704780
:101130007FEA226C02D15FEA402C05D17FEA236C62
:10114000E4D15FEA412CE1D05DF8040B704700BFA9
:10115000844608466146FFE70FB5FFF7C9FF002840
:1011600048BF10F1000F0FBD4DF808EDFFF7F4FF79
:101170000CBF012000205DF808FB00BF4DF808ED12
:10118000FFF7EAFF34BF012000205DF808FB00BF35
:101190004DF808EDFFF7E0FF94BF012000205DF857
:1011A00008FB00BF4DF808EDFFF7D2FF94BF012008
:1011B00000205DF808FB00BF4DF808EDFFF7C8FF01
:1011C00034BF012000205DF808FB00BF42000ED2B2
:1011D000B2F1FE4F0BD34FF09E03B3EB126209D472
:1011E0004FEA002343F0004323FA02F070474FF028
:1011F0000000704712F1610F01D1420202D14FF09D
:10120000FF3070474FF00000704700BF70B50F4EC1
:101210000F4D761BB61018BF002405D0013455F8C9
:10122000043B9847A642F9D10A4E0B4D761B00F0BD
:10123000DBF9B61018BF002406D0013455F8043B82
:101240009847A642F9D170BD70BD00BFF4154000AB
:10125000F4154000FC154000F4154000024B13B19A
:10126000024800F005B87047000000007D12400001
:10127000002301461A46184600F01EB838B50A4C3D
:101280000A4D641BA4100AD004F18043013B05EB16
:101290008305013C55F804399847002CF9D1BDE885
:1012A000384000F0ABB900BF0C16400008164000F3
:1012B000704700BF704700BF2DE9F8432C4D06462C
:1012C000286898460F469146FFF7F2FF294B1C68A5
:1012D000D4F84831002B3ED05A681F2A1CDC02F19A
:1012E000010E76B103EB82010124C1F88890D3F896
:1012F000880194402043022EC3F88801C1F8088178
:1013000023D00232C3F804E0286843F82270FFF7C4
:10131000D1FF0020BDE8F883174B0BB34FF4C87022
:10132000AFF300800346D8B1D4F848210260002111
:1013300041600A46C4F848014FF0010EC0F8881118
:10134000C0F88C11002EDCD0CCE7D3F88C110C4304
:10135000C3F88C41D5E704F5A673C4F84831BBE760
:101360002868FFF7A7FF4FF0FF30BDE8F88300BF04
:1013700030044020E4154000000000002D852D3988
:1013800088763D3B85A7143BE990533BC4F68B3BE5
:101390000200B43B00CEE13BB09F0A3CEC0F273C7F
:1013A0007BFE453CD327673CD214853CCD48973C17
:1013B0006BF0A93C98C2BC3C366FCF3C80A2E13CAC
:1013C000F309F33C22AB013D4818093DF4A80F3D59
:1013D0006A39153D03AF193D2DEE1C3D70E71E3DEA
:1013E00072931F3D70E71E3D2DEE1C3D03AF193D6E
:1013F0006A39153DF4A80F3D4818093D22AB013D5F
:10140000F309F33C80A2E13C366FCF3C98C2BC3C70
:101410006BF0A93CCD48973CD214853CD327673C60
:101420007BFE453CEC0F273CB09F0A3C00CEE13BE5
:101430000200B43BC4F68B3BE990533B85A7143BB9
:1014400088763D3B2D852D3933000000AD2C363894
:1014500002C5A5B8ECD5C6B88291DFB853ADB0B817
:101460003D2638B71E89EA387A5C8839A25ECB39C6
:10147000E604E539C920B939BB6DE538FA6F90B992
:10148000567A3EBA38B192BA10EAAABA609B96BAB6
:1014900029331ABAFDCEB039C453BF3A94E5233B81
:1014A0005CE14C3B89AC463BACD7053BA23851399B
:1014B000CCFD0FBB312197BBFCBBD0BB534DDFBB79
:1014C0003C27B4BBA0391ABBA711103B2AB4ED3B93
:1014D000697C3D3CCFFD613C0B6D523C785D063C28
:1014E00021EB48399B7B22BC9CFCA3BCDD17E1BCF3
:1014F000939FF2BC38DFC6BC255429BCE03D433C79
:10150000578A263D18F0943D2518D53D3B7B053E76
:101510009A69173EA0B31D3E9A69173E3B7B053E74
:101520002518D53D18F0943D578A263DE03D433CB3
:10153000255429BC38DFC6BC939FF2BCDD17E1BC43
:101540009CFCA3BC9B7B22BC21EB4839785D063C0C
:101550000B6D523CCFFD613C697C3D3C2AB4ED3BB8
:10156000A711103BA0391ABB3C27B4BB534DDFBBBE
:10157000FCBBD0BB312197BBCCFD0FBBA23851398E
:10158000ACD7053B89AC463B5CE14C3B94E5233B47
:10159000C453BF3AFDCEB03929331ABA609B96BA0C
:1015A00010EAAABA38B192BA567A3EBAFA6F90B92E
:1015B000BB6DE538C920B939E604E539A25ECB39FF
:1015C0007A5C88391E89EA383D2638B753ADB0B801
:1015D0008291DFB8ECD5C6B802C5A5B8AD2C3638B7
:1015E0006500000008004020F8B500BFF8BC08BC4A
:1015F0009E4670475D1240008D014000F8B500BF67
:0C160000F8BC08BC9E4670476901400021
:10160C00001BB7000000000000000000F4024020A6
:10161C005C034020C40340200000000000000000D8
:10162C0000000000000000000000000000000000AE
:10163C00000000000000000000000000000000009E
:10164C00000000000000000000000000000000008E
:10165C00000000000000000000000000000000007E
:10166C00000000000000000000000000000000006E
:10167C00000000000000000000000000000000005E
:10168C00000000000000000000000000000000004E
:10169C00000000000000000000000000000000003E
:1016AC00000000000000000000000000000000002E
:1016BC0001000000000000000E33CDAB34126DE6CB
:1016CC00ECDE05000B000000000000000000000034
:1016DC0000000000000000000000000000000000FE
:1016EC0000000000000000000000000000000000EE
:1016FC0000000000000000000000000000000000DE
:10170C0000000000000000000000000000000000CD
:041A3C003C05402005
:0400000500400000B7
:00000001FF
