S01500004469676974616C46696C7465722E73726563EB
S214400000800A402029044000250440002504400082
S2144000102504400025044000250440000000000060
S2144000200000000000000000000000002504400022
S2144000302504400000000000250440002504400040
S21440004025044000250440002504400025044000C7
S21440005025044000250440002504400025044000B7
S2144000602504400000000000250440002504400010
S2144000702504400025044000250440002504400097
S2144000802504400025044000250440002504400087
S2144000902504400025044000250440002504400077
S2144000A02504400025044000250440002504400067
S2144000B025044000E104400025054000250440009A
S2144000C02504400025044000250440002504400047
S2144000D02504400025044000250440002504400037
S2144000E02504400025044000250440002504400027
S2144000F02504400025044000250440002504400017
S2144001002504400025044000250440002504400006
S2144001102504400000000000000000000000000031
S21440012025044000250440002504400025044000E6
S21440013025044000250440002504400025044000D6
S21440014025044000250440002504400025044000C6
S21440015025044000250440002504400025044000B6
S214400160250440002504400010B5054C237833B9DB
S214400170044B13B10448AFF300800123237010BD35
S2144001803404402000000000B40740000C4B43B14C
S2144001900C480D4910B5AFF300800C48036823B9EE
S2144001A010BD0A48036833B97047094B002BF7D097
S2144001B0BDE810401847064B002BF5D0184700BF47
S2144001C000000000B407400038044020B407400058
S2144001D0000000003E4B0A22C3F80C21D3F80C2145
S2144001E042F01022C3F80C210B22C3F80C21D3F89E
S2144001F00C2142F01022C3F80C210C22C3F80C212B
S214400200D3F80C2142F01022C3F80C211022C3F878
S2144002100C21D3F80C2142F01022C3F80C211122F5
S214400220C3F80C21D3F80C2142F01022C3F80C215D
S21440023003F540631A6942F480721A61D3F8A0202D
S21440024042F48072C3F8A0205A6B42F480725A631C
S214400250A3F580635A6942F400625A61D3F8A0203D
S21440026042F40062C3F8A0205A6E42F400625A6616
S214400270D3F8902042F40062C3F890205A6D42F4BE
S21440028000625A651A6A42F400621A62D3F8842001
S21440029042F40062C3F884201A6F22F400621A67A0
S2144002A05A6F22F400625A67D3F8C02042F40062C4
S2144002B0C3F8C020D3F8D42042F40062C3F8D42058
S2144002C0D3F8B02042F40062C3F8B020704700BFB5
S2144002D000060E40F8B5324A536843F40043536074
S2144002E0BFF34F8FBFF36F8F2E4B0021C3F85012D2
S2144002F0BFF34F8FBFF36F8F5A6942F400325A6193
S214400300BFF34F8FBFF36F8FC3F88410BFF34F8F89
S214400310D3F88070C7F34E35C7F3C9076E014FEA6E
S214400320877C43F6E07E1C4606EA0E0062463B4665
S21440033042EA0001C4F86012013B02F14042B3F1C8
S214400340FF3FF5D1013D203EB5F1FF3FECD1BFF375
S2144003504F8F144B5A6942F480325A61BFF34F8F25
S214400360BFF36F8F104A11495160A1F580715160FB
S214400370BFF34F8FBFF36F8FD3F8902222F0010266
S214400380C3F89022D3F8942222F00102C3F89422B4
S214400390BFF34F8FBFF36F8F054B9847F8BD00BF35
S2144003A050180E4000ED00E0000C0E400C08005ABD
S2144003B0D5014000184B1E22C3F80C21D3F80C215F
S2144003C042F01022C3F80C21144B01211960D3F8D7
S2144003D0E400134A0243C3F8E420D3F8E420C3F809
S2144003E0E4205A6842F070625A609A689A60D3F87D
S2144003F0942042F00302C3F894209A69196112F4DB
S214400400807F04D11A46936913F4807FFBD0002284
S214400410024BDA61704700BF00060E400000044001
S21440042000434144FEE7000008B5174B174A9A427E
S21440043010D0174B144A9A420CD2013B9B1A23F019
S214400440030304331344114951F8040B42F8040BD8
S2144004509A42F9D10F4B104A9A420AD2013B9B1A54
S21440046023F0030304331344002142F8041B934251
S214400470FBD10A4A0A4B23F07F039360094B984707
S214400480094B9847FEE700BF00004020B4074000F5
S214400490340440207C0440203404402000ED00E03A
S2144004A0000040001D064000BD044000014A024BCB
S2144004B01A607047001BB7000000402008B5044B88
S2144004C09847044B9847044B9847044B9847FEE799
S2144004D0AD044000AD054000D5024000B5034000E5
S2144004E00C4A136B43F4807313630B4B1B6B13F074
S2144004F0010F0AD0536B43F480735363064B9A6ED6
S214400500064B1A600122064B1A600222024B1A6002
S214400510704700BF00120E4000C003405404402005
S21440052050044020014B1B6B704700BF0000044046
S21440053010490B6A104A1A40104B13430B620A4686
S214400540936E13F0010FFBD00A4A116A0C4B0B4313
S2144005501362936E13F4803FFBD0064A536A13F43B
S214400560803FFBD0034B586A80B2B0FA80F0400917
S214400570704700BF00060E40FCC1C8FF013E370072
S21440058000003701084B4FF000529A6202F5C11244
S21440059002F5F85201329A621A46936E13F0020F31
S2144005A0FBD00020704700BF00060E4008B5154A35
S2144005B0D2F8883043F47003C2F88830BFF34F8FC8
S2144005C0BFF36F8F104A114B1A60114B9847114B6F
S2144005D09847114A136B23F4407343F480731363B4
S2144005E0936E13F0080FFBD00B4A136B23F00303F4
S2144005F043F002031363936E13F0080FFBD0002002
S21440060008BD00BF00ED00E000060004000C0E40F0
S214400610310540008505400000060E4070B50F4E7F
S2144006200F4D761BB61018BF002405D0013455F880
S214400630043B9847A642F9D10A4E0B4D761B00F074
S214400640A7F8B61018BF002406D0013455F8043B6E
S2144006509847A642F9D170BD70BD00BF9C074000C8
S2144006609C074000A40740009C074000024B13B183
S214400670024800F005B87047000000008D064000B4
S214400680002301461A46184600F01EB838B50A4CF4
S2144006900A4D641BA4100AD004F18043013B05EBCD
S2144006A08305013C55F804399847002CF9D1BDE83C
S2144006B0384000F077B800BFB4074000B0074000AD
S2144006C0704700BF704700BF2DE9F8432C4D0646E3
S2144006D0286898460F469146FFF7F2FF294B1C685C
S2144006E0D4F84831002B3ED05A681F2A1CDC02F151
S2144006F0010E76B103EB82010124C1F88890D3F84D
S214400700880194402043022EC3F88801C1F808812E
S21440071023D00232C3F804E0286843F82270FFF77B
S214400720D1FF0020BDE8F883174B0BB34FF4C870D9
S214400730AFF300800346D8B1D4F8482102600021C8
S21440074041600A46C4F848014FF0010EC0F88811CF
S214400750C0F88C11002EDCD0CCE7D3F88C110C43BB
S214400760C3F88C41D5E704F5A673C4F84831BBE717
S2144007702868FFF7A7FF4FF0FF30BDE8F88300BFBB
S214400780300440208C074000000000000800402055
S214400790F8B500BFF8BC08BC9E4670476D064000E2
S2144007A08D014000F8B500BFF8BC08BC9E467047B7
S2084007B06901400056
S2144007B4001BB7000000000000000000F4024020C8
S2144007C45C034020C40340200000000000000000FA
S2144007D400000000000000000000000000000000D0
S2144007E400000000000000000000000000000000C0
S2144007F400000000000000000000000000000000B0
S214400804000000000000000000000000000000009F
S214400814000000000000000000000000000000008F
S214400824000000000000000000000000000000007F
S214400834000000000000000000000000000000006F
S214400844000000000000000000000000000000005F
S214400854000000000000000000000000000000004F
S21440086401000000000000000E33CDAB34126DE6EC
S214400874ECDE05000B000000000000000000000055
S214400884000000000000000000000000000000001F
S214400894000000000000000000000000000000000F
S2144008A400000000000000000000000000000000FF
S2144008B400000000000000000000000000000000EF
S208400BE4580440200C
S804400000BB
