:020000040040BA
:10000000181E4020AD044000A9044000A90440008F
:10001000A9044000A9044000A90440000000000019
:10002000000000000000000000000000A9044000E3
:10003000A904400000000000A9044000A9044000F9
:10004000A9044000A9044000A9044000A9044000FC
:10005000A9044000A9044000A9044000A9044000EC
:10006000A904400000000000A9044000A9044000C9
:10007000A9044000A9044000910B4000A9044000DD
:10008000A9044000A9044000A9044000A9044000BC
:10009000A9044000A9044000A9044000E106400072
:1000A000A9044000A9044000A9044000A90440009C
:1000B000A9044000B50640003D074000A9044000E7
:1000C000A9044000A9044000A9044000A90440007C
:1000D000A9044000A9044000A9044000A90440006C
:1000E000A9044000A9044000A9044000A90440005C
:1000F000A9044000A9044000A9044000A90440004C
:10010000A9044000A9044000A9044000A90440003B
:10011000A9044000000000000000000000000000F2
:10012000A9044000A9044000A9044000A90440001B
:10013000A9044000A9044000A9044000A90440000B
:10014000A9044000A9044000A9044000A9044000FB
:10015000A9044000A9044000A9044000A9044000EB
:10016000A9044000A904400010B5054C237833B918
:10017000044B13B10448AFF300800123237010BD7A
:100180003C10402000000000382C40000C4B43B1D4
:100190000C480D4910B5AFF300800C48036823B933
:1001A00010BD0A48036833B97047094B002BF7D0DC
:1001B000BDE810401847064B002BF5D0184700BF8C
:1001C00000000000382C400040104020382C400037
:1001D0000000000010B4174B1D22C3F80C21D3F807
:1001E0000C2142F01022C3F80C21134B01221A609B
:1001F000000280B21149014359604FF000719960CB
:100200004FF44371C3F89410002159664FF4007104
:10021000D9660B494FF00050C1F88001202481F8C5
:100220001D4308605A625A6102221A605DF8044B4D
:10023000704700BF00060E4000C003400000842F3E
:1002400000E100E0454B0A22C3F80C21D3F80C2151
:1002500042F01022C3F80C210B22C3F80C21D3F872
:100260000C2142F01022C3F80C210C22C3F80C21FF
:10027000D3F80C2142F01022C3F80C211022C3F84D
:100280000C21D3F80C2142F01022C3F80C211122CA
:10029000C3F80C21D3F80C2142F01022C3F80C2132
:1002A00003F540631A6942F480721A61D3F8A02002
:1002B00042F48072C3F8A0205A6B42F480725A63F1
:1002C0001A6942F480621A61D3F8A02042F4806275
:1002D000C3F8A0205A6B42F480625A63A3F580638E
:1002E0005A6942F400625A61D3F8A02042F40062D5
:1002F000C3F8A0205A6E42F400625A66D3F89020E8
:1003000042F40062C3F890205A6D42F400625A65CC
:100310001A6A42F400621A62D3F8842042F400623E
:10032000C3F884201A6F22F400621A675A6F22F40D
:1003300000625A67D3F8C02042F40062C3F8C020BC
:10034000D3F8D42042F40062C3F8D420D3F8B0200C
:1003500042F40062C3F8B020704700BF00060E40B0
:10036000F8B5324A536843F400435360BFF34F8FEC
:10037000BFF36F8F2E4B0021C3F85012BFF34F8F86
:10038000BFF36F8F5A6942F400325A61BFF34F8F47
:10039000BFF36F8FC3F88410BFF34F8FD3F8807013
:1003A000C7F34E35C7F3C9076E014FEA877C43F6A2
:1003B000E07E1C4606EA0E0062463B4642EA000129
:1003C000C4F86012013B02F14042B3F1FF3FF5D1A6
:1003D000013D203EB5F1FF3FECD1BFF34F8F144BF1
:1003E0005A6942F480325A61BFF34F8FBFF36F8F67
:1003F000104A11495160A1F580715160BFF34F8FD0
:10040000BFF36F8FD3F8902222F00102C3F890223D
:10041000D3F8942222F00102C3F89422BFF34F8F45
:10042000BFF36F8F054B9847F8BD00BF50180E40C3
:1004300000ED00E0000C0E400C08005A45024000A0
:10044000164B1E22C3F80C21D3F80C2142F01022C7
:10045000C3F80C21124B01211960D3F8E400114AB2
:100460000243C3F8E420D3F8E420C3F8E4205A6838
:1004700042F070625A609A689A60D3F8942042F011
:100480000302C3F894209A69196112F4807F04D1A1
:100490001A46936913F4807FFBD0704700060E4024
:1004A0000000044000434144FEE7000008B5174B3C
:1004B000174A9A4210D0174B144A9A420CD2013B69
:1004C0009B1A23F0030304331344114951F8040B1E
:1004D00042F8040B9A42F9D10F4B104A9A420AD2C1
:1004E000013B9B1A23F0030304331344002142F819
:1004F000041B9342FBD10A4A0A4B23F07F0393600B
:10050000094B9847094B9847FEE700BF0000402081
:10051000382C40003C104020141840203C10402053
:1005200000ED00E000004000150C4000D105400047
:10053000014A024B1A607047001BB70000004020C0
:10054000F0B51F4BD3F800E04FEA8E0285181D4B23
:100550001F681D4B03EB870484ED000A9C4229D3DE
:10056000231D194EA61B26F00306A41B01469FED72
:10057000170A73ED017AB1EC017A67EE877A30EEF3
:10058000270AA342F5D10436304485420BD90E4BDD
:10059000134473ED017AB0EC017A67EE877A30EE9E
:1005A000270A8542F5D80137BE4506D80022054BFB
:1005B0001A60F0BD9FED050AE7E7024B1F60F0BD32
:1005C0000400402058104020EC13402000000000A0
:1005D00070B584B0244B9847244B9847244B9847D8
:1005E000244B9847244B98472448254B9847254E41
:1005F000254D264CB0470028FCD0A84704AB03F893
:100600000C0D21461846224B98470028F2D121486C
:100610001B4B98470320204B9847204B9847204A74
:10062000D2F8883043F47003C2F88830BFF34F8F9C
:10063000BFF36F8F1B4C1C4D2368002BFCD06368ED
:10064000002BF9D194ED020A1848194B984784ED14
:10065000030A012363606B6B43F480736B632B6B42
:1006600043F480732B63E7E731054000BD0740008A
:10067000610340000909400089094000E02B400067
:100680009D0D4000610A40007D0A4000F82B4000AB
:10069000690F4000FC2B4000D501400041044000A0
:1006A00000ED00E05C10402000120E4008004020E9
:1006B00041054000084B1B6B13F0010F0BD0064B9C
:1006C000D3ED1A7AF8EE677A044BC3ED027A012271
:1006D0001A6000225A60704700C003405C1040203E
:1006E000124B1B6813F0100F1FD0114B1B682BB15E
:1006F0000222104B1A6000220D4B1A600E4B1B6B2E
:1007000013F0010F11D00C4B9B6913F4807F0CD0B8
:1007100082B0074BD3ED037AFCEEE77ACDED017A98
:10072000BDF80430044AD36102B0704720C00040D5
:100730005C10402000C003400000044070470000EF
:1007400010490B6A104A1A40104B13430B620A46B9
:10075000936E13F0010FFBD00A4A116A0C4B0B4346
:100760001362936E13F4803FFBD0064A536A13F46E
:10077000803FFBD0034B586A80B2B0FA80F040094A
:10078000704700BF00060E40FCC1C8FF013E3700A5
:1007900000003701084B4FF000529A6202F5C11277
:1007A00002F5F85201329A621A46936E13F0020F64
:1007B000FBD00020704700BF00060E4008B5154A68
:1007C000D2F8883043F47003C2F88830BFF34F8FFB
:1007D000BFF36F8F104A114B1A60114B9847114BA2
:1007E0009847114A136B23F4407343F480731363E7
:1007F000936E13F0080FFBD00B4A136B23F0030327
:1008000043F002031363936E13F0080FFBD0002034
:1008100008BD00BF00ED00E000060004000C0E4023
:10082000410740009507400000060E400A4B1B6838
:1008300053B1094B1B681A180849914208DB10464E
:10084000054A106018467047054A034B1A60F0E7E6
:100850004FF0FF30704700BF6C104020FFFF452075
:10086000181E40204FF0FF3070474FF400534B608C
:10087000002070470120704700207047013802288F
:1008800015D82DE9F0410E4614469AB10D46DFF811
:1008900038800C4FD8F8000015F8011B3B689847CA
:1008A00000280ADBA81B013CF4D1BDE8F0814FF021
:1008B000FF3070471046BDE8F0814FF0FF30BDE8D3
:1008C000F08100BFF8074020E81740202DE9F041F3
:1008D00080B90C469046002A0FDD8F18084E094D4E
:1008E000306821462B6898470134BC42F8D1404615
:1008F000BDE8F0814FF0FF38F9E78046F7E700BF29
:10090000E8174020E41740201B4B4FF40002C3F8C7
:100910008021202183F817131A60184BD3F80C217B
:1009200042F01702C3F80C21D3F80C2142F0102238
:10093000C3F80C21A3F55423A3F2FC531A6842F028
:1009400001021A600E490A6842F010020A601A6831
:1009500042F480421A60043B1A6842F001021A60B5
:10096000BB21084A11601A6842F001021A601A6835
:1009700042F004021A60704700E100E000060E40F9
:1009800024C000401CC0004038B52B4B5A6E42F4C6
:1009900000125A665A6842F400125A601A6F22F422
:1009A00000121A675A6F22F400125A6703F5007397
:1009B0005A6E42F010025A665A6842F010025A60AB
:1009C0001A6F42F010021A675A6F42F010025A670B
:1009D0001A4AD2F8143143F01003C2F814314FF41C
:1009E0008041174B1961174BD3F8E42022F0010224
:1009F000C3F8E420144AC3F8E420144A1A624FF4FE
:100A00000C625A6040F201229A60114AC2F88011C9
:100A1000E02082F80E03116050221A600D4A136024
:100A20000D4D2B68002198680C4CA0472B680021C5
:100A30005868A04738BD00BF000E0E400080084037
:100A400000060E4000800240004153552800060079
:100A500000E100E0E8174020FC074020AD0D400019
:100A6000054B1878C0B25B78DBB2984238BF503083
:100A7000C01AC0B2704700BF7010402038B5094B93
:100A80005D78EDB2084CA0470028FCD0054B2B4404
:100A900018796B1CDBB2502B28BF0023014A53701E
:100AA00038BD00BF70104020610A4000064A92F82D
:100AB00054000130C3B292F85500C0B2834288BFDF
:100AC0001238C01AC0B2704770104020F8B50746FF
:100AD000134D144C40F2012602E0A3683343A36097
:100AE000A8470028F9D0104A92F85430DBB2D11848
:100AF00081F858700133DBB20C494FF48040C1F8E3
:100B00008000BFF34F8FBFF36F8F82F85430054AD8
:100B1000946840F20123234393600860F8BD00BF4E
:100B2000AD0A4000008002407010402000E100E06B
:100B300010B50C460846144B98473E2C09D03C2C67
:100B40000CD0124B93F84623544083F846430020C0
:100B500010BD00220D4B83F84623F8E70B4B93F8AA
:100B6000464320090928D4BF30303730064B984718
:100B700004F00F04092CD4BF04F1300004F1370055
:100B8000014B9847E3E700BFCD0A400070104020BA
:100B90001E4B5B6913F4007F16D01D4A92F8553046
:100BA000DBB292F85420D2B2934228D018491944AB
:100BB00091F85810C9B21548C1610133DBB29A42AD
:100BC0001CD0134A82F85530104B5B6913F0010FAB
:100BD00013D00F4A1378DBB20C498969C9B21A44A1
:100BE00011710133DBB2502B28BF0023084A527821
:100BF000D2B2934201D0064A137070471A464FF49E
:100C00000071024BD9601346DBE700BF0080024051
:100C10007010402070B50F4E0F4D761BB61018BFE8
:100C2000002405D0013455F8043B9847A642F9D179
:100C30000A4E0B4D761B01F0EDFFB61018BF0024D5
:100C400006D0013455F8043B9847A642F9D170BD4F
:100C500070BD00BF202C4000202C4000282C4000FC
:100C6000202C400070B4860746D0541E002A41D084
:100C7000CAB2034602E014F1FF343BD303F8012B60
:100C80009D07F8D1032C2ED9CDB245EA05250F2CAE
:100C900045EA054519D903F110022646103E0F2EEC
:100CA00042F8105C42F80C5C42F8085C42F8045CC4
:100CB00002F11002F2D8A4F1100222F00F0204F0A7
:100CC0000F041032032C13440DD91E462246043A59
:100CD000032A46F8045BFAD8221F22F003020432EA
:100CE000134404F003042CB1C9B21C4403F8011BE3
:100CF0009C42FBD170BC704714460346C2E700BF5C
:100D0000F0B5054689B008460C4600F099FAAB6B81
:100D1000214F04940126441C04A902220394059047
:100D2000AC68069707960191029253B3636E13F075
:100D3000010FB4F90C309AB201D1900525D5910478
:100D400006D4626E43F4005322F40052A38162661B
:100D5000284601AA214600F071FD636E00280CBFF1
:100D60000A254FF0FF35DA0702D4A3899B0502D587
:100D7000284609B0F0BDA06D00F008FF284609B074
:100D8000F0BD284600F0D2FBD0E7A06D00F0FCFEDD
:100D9000B4F90C309AB2D2E7102C4000024B014655
:100DA0001868FFF7ADBF00BFFC07402000290CBF4B
:100DB000022200224FF4806300F000B82DE9F043D6
:100DC000614C256883B004460F4690461E4615B117
:100DD000AB6B002B64D0B8F1020F06D0B8F1010F55
:100DE00000F29F80002EC0F29C80636ED80734D53D
:100DF0002146284600F042FB216B41B104F140033B
:100E0000994202D0284600F033FC00232363B4F952
:100E10000C300022A26162601A063AD423F44A63BD
:100E200023F00303B8F1020FA3811DD001AB6A4682
:100E30002146284600F0ACFEA3891843A081002E6D
:100E400032D1009E304600F01BFF074600286BD0D1
:100E5000A38943F08003A38128E0A3899905C7D41F
:100E6000A06D00F091FEC3E70025616E002604F13D
:100E7000430243F002030120A660CE07A381226053
:100E80002261606101D498053ED5284603B0BDE8D3
:100E9000F0832169284600F0EBFBB4F90C30BDE784
:100EA000284600F043FB96E7002FCBD0AB6B002B1E
:100EB00033D0009BB4F90C2027609E421CBF42F443
:100EC0000062A281B8F1010F04BF42F00102A281C9
:100ED00092B212F00803276166610ED0D1071AD5CD
:100EE000656E7642002315F00105A661A36009D066
:100EF0000025284603B0BDE8F083A360656E15F0B9
:100F00000105F5D19305C0D4A06D00F03FFE284641
:100F100003B0BDE8F083A660F0E7284600F006FBCA
:100F2000C7E74FF0FF35B0E7DDF80090B14504D0DA
:100F3000484600F0A5FE074620B9B4F90C304FF042
:100F4000FF3592E74E4683E7FC0740200000000093
:100F50000000000000000000000000000000000091
:100F6000A2EB0300704700BF02780B78012A28BF6C
:100F70009A42F5D16DE9044540EA0104CDE90267E2
:100F80006FF0000C4FEA447212B380EA010414F0CF
:100F9000070F6AD100F0070420F0070004F00305F2
:100FA00021F007014FEAC505F0E8042314F0040F0F
:100FB000F1E804670CFA05F462EA040266EA040642
:100FC0000AD063EA0403624667EA0407664603E060
:100FD000F0E80423F1E8046782FA4CF582EA06049B
:100FE000A4FA8CF46CBB83FA4CF583EA0705A5FAE6
:100FF0008CF595B950E9022351E9026782FA4CF564
:1010000082EA0604A4FA8CF483FA4CF583EA070515
:10101000A5FA8CF52543DBD09CB92DBAB5FA85F439
:1010200024F0070427FA04F1DDE9026723FA04F348
:1010300003F0FF0001F0FF01FDE80445A0EB010013
:10104000704724BAB4FA84F424F0070426FA04F1B1
:10105000DDE9026722FA04F202F0FF0001F0FF016D
:10106000FDE80445A0EB0100704714F0030F3CD1EC
:1010700010F0030428D150F8082B51F8083B82FAED
:101080004CF582EA0305A5FA8CF55DB950F8042CFD
:1010900051F8043C82FA4CF582EA0305A5FA8CF576
:1010A000002DE8D02DBAB5FA85F424F0070423FA10
:1010B00004F122FA04F202F0FF0001F0FF01FDE862
:1010C0000445A0EB010070474FEAC40420F0030080
:1010D00050F8082B21F0030151F8083B0CFA04F4F6
:1010E00062EA040263EA0403C9E710F003041AD0B9
:1010F000A1EB040120F00300E40750F8042B06D014
:101100000FD28B785FFAA2F4E41A06D12BB1CB7818
:101110005FFAB2F4E41A00D11BB920465DF8104B17
:10112000704701F1040150F8042BCC0721F00301B2
:1011300051F8043B48D824D222F07F4482FA4CF57F
:1011400094EA1325A5FA8CF50AD165B951F8043B48
:1011500084EA0204B4EB036F0ED150F8042BEBE7E2
:101160004FEA132355E035F07F454DD10878FDE86F
:101170000445C0F1000070474FEA126203F0FF031C
:1011800047E002EA1C4482FA4CF594EA1345A5FABA
:101190008CF50AD165B951F8043B84EA0204B4EB3A
:1011A000034F0CD150F8042BEBE74FEA134330E028
:1011B00015EA1C4528D10B884FEA124229E04FEA74
:1011C000124203EA1C4324E002F0FF0482FA4CF5C9
:1011D00094EA1365A5FA8CF50AD165B951F8043B78
:1011E00084EA0204B4EB032F09D150F8042BEBE797
:1011F0004FEA13630DE015F0FF0F05D10B684FEABE
:10120000122223F07F4304E04FF00000FDE8044584
:10121000704712BA1BBA82FA4CF482EA0304A4FAA9
:101220008CF5B5FA85F402FA04F203FA04F34FEAF6
:101230001260FDE80445A0EB136070470000000059
:1012400090F800F06DE9024520F007016FF0000C06
:1012500010F0070491F820F040F049804FF00004AE
:101260006FF00700D1E9002391F840F000F1080089
:1012700082FA4CF2A4FA8CF283FA4CF3A2FA8CF3C1
:101280004BBBD1E9022382FA4CF200F10800A4FA28
:101290008CF283FA4CF3A2FA8CF3E3B9D1E904237C
:1012A00082FA4CF200F10800A4FA8CF283FA4CF3B3
:1012B000A2FA8CF37BB9D1E9062301F1200182FA6D
:1012C0004CF200F10800A4FA8CF283FA4CF3A2FA73
:1012D0008CF3002BC6D0002A04BF04301A4612BA81
:1012E000B2FA82F2FDE8024500EBD2007047D1E984
:1012F000002304F00305C4F100004FEAC50514F013
:10130000040F91F840F00CFA05F562EA05021CBFE3
:1013100063EA050362464FF00004A9E7024B13B1EC
:10132000024800F005B87047000000009D1540001D
:10133000002301461A46184601F02ABBB1F90C30C9
:101340009AB22DE9F0410D46110780463AD46A68F9
:1013500043F40063002AAB816FDDAC6A002C49D0F6
:1013600000229BB2D8F80060C8F8002013F4805225
:1013700067D02A6D5F0705D569682B6B521A0BB1D0
:10138000EB6BD21A0023E9694046A047441C3CD0CD
:10139000B5F90C302A692A6023F400630022AB817E
:1013A000DB046A6047D4296BC8F8006011B305F10B
:1013B0004003994202D0404600F05AF900202863C9
:1013C000BDE8F0812E69AEB12C682E6091070CBF8C
:1013D0006B690023A41BAB600AE0234632466F6AA8
:1013E000E9694046B8470028A4EB0004064404DD40
:1013F000002CF2DC0020BDE8F081AB8943F0400313
:10140000AB814FF0FF30BDE8F081D8F800401D2CD3
:10141000F3D8194BE340DB4313F00103EDD1B5F9E9
:101420000C206B6022F400632969AB81DA04296027
:10143000B9D5002CB7D12865B5E7EA6B002A8CDC5A
:10144000D8E70123E9694046A047431C024602D081
:10145000AB89AC6A8EE7D8F80030002BF8D01D2B92
:1014600001D0162B02D1C8F80060C3E7AB8943F066
:101470004003AB81BDE8F0810100402038B50D4646
:10148000044608B1836BBBB1B5F90C0088B16B6E33
:10149000DB0701D4810517D520462946FFF74EFF0B
:1014A0006B6EDA07044602D4AB899B0507D520464C
:1014B00038BD0446204638BD00F038F8E4E7A86D92
:1014C00000F064FB204638BDA86D00F05DFBE3E74B
:1014D000014900F02BBB00BF792A400010B5002362
:1014E00004468181C2810360436083604366036177
:1014F00043618361194608225C30FFF7B3FB07485C
:101500000749084A084B2062E4616162A262E36213
:1015100004F15800BDE8104000F032BB152840002F
:1015200039284000752840009528400010B5044631
:10153000124800F029FBA26BD2B904F53B731048A6
:10154000C4F8E8320321C4F8E022E063C4F8E412EE
:1015500060680421FFF7C2FF01220921A068FFF79C
:10156000BDFF02221221E068FFF7B8FF0123A36349
:101570000248BDE8104000F009BB00BFF81740204A
:10158000D1144000014800F0FFBA00BF0C18402001
:10159000014800F0FBBA00BF0C18402038B50A4CD7
:1015A0000A4D641BA4100AD004F18043013B05EBF3
:1015B0008305013C55F804399847002CF9D1BDE862
:1015C000384001F031BB00BF382C4000342C4000C3
:1015D000F8B5244F0C46064600F058FFBB685D681E
:1015E000C4F57E610F3125F00305294421F47F61A4
:1015F00021F00F01A1F58054B4F5805F07DB0021D5
:10160000304601F0F5F8BB682B44984204D03046D0
:1016100000F042FF0020F8BD6142304601F0E8F8DA
:1016200001300DD0104BBA6819682D1B45F001052B
:101630003046091B5560196000F02EFF0120F8BDEF
:101640000021304601F0D4F8BA68831A0F2BDEDD92
:10165000064C0549246843F00103001B53600860F1
:10166000D5E700BF2C0C4020B81340203410402098
:10167000002944D02DE9F0410D46804600F006FFD8
:1016800055F8047C694927F00103A5F10804E21824
:101690008E685068B24220F003005ED0FE075060B2
:1016A0000BD455F8087CE41B01F1080EA5687545BC
:1016B0003B446DD0E768EF60BD6015186D68ED07BD
:1016C0003ED543F001026260E350B3F5007F17D2CC
:1016D000DB08581C9A104D6851F83070A760012340
:1016E000934001EBC0022B43083AE2604B6041F8A3
:1016F0003040FC604046BDE8F04100F0CDBE704790
:101700005A0A042A52D89A0902F13907FF0002F155
:101710003805C819CA59083890424FD0516821F08D
:1017200003018B4232D292689042F7D1C368A06025
:10173000E3609C60C4604046BDE8F04100F0ACBE90
:1017400095683B4FBD42034440D0D068E86043F009
:10175000010285606260E350B7E7FF07034407D4E6
:1017600055F8082CA41A1344A068E268C26090607F
:10177000304A126843F00100934260608C60B9D334
:101780002D4B40461968FFF723FFB3E71046CDE71E
:1017900011184968C90744D49168D268CA600344E3
:1017A00043F0010091606060E350A3E7142A16D86B
:1017B00002F15C07FF0002F15B05AAE7AA10012312
:1017C0004D6893402B434B600346B0E743F0010262
:1017D0004C610C61E560A5606260E3508AE7542AC1
:1017E00006D81A0B02F16F07FF0002F16E0590E7B1
:1017F000B2F5AA7F06D8DA0B02F17807FF0002F1F2
:10180000770586E740F25450824206D89A0C02F1DE
:101810007D07FF0002F17C057BE74FF47E777E2594
:1018200077E743F001016160136063E72C0C40200F
:10183000340C402038104020E81340209368002BDF
:1018400073D02DE9F04F8B8983B00C4619070090B7
:10185000164626D5226922B313F0020035682CD033
:101860004FF00009B04FC846B246B84543464A4615
:1018700028BF3B460098B8F1000F50D0E169666A76
:10188000B047002858DDDAF808301B1A8144A8EB6D
:101890000008CAF80830002BE7D1002003B0BDE8EB
:1018A000F08F2146009801F00FF8002840F03381B6
:1018B000A389356813F00200D2D113F0010945D194
:1018C0004F46019637B39A05D4F8088040F18380DB
:1018D0004745C346C0F0AB8013F4906F40F0AC8036
:1018E0002068BA465A46494600F06CFDA268236853
:1018F000A2EB08025B44A2602360019A9368A3EB09
:101900000A03D144A7EB0A079360002BC5D0A38933
:10191000002FD8D1D5F800906F680835D2E7D5F8F8
:101920000090D5F8048008359FE7002070472146D5
:101930000098FFF7A3FD70B3B4F90C3043F04003F7
:101940004FF0FF30A38103B0BDE8F08F81463346EE
:101950004E46A8469A464D464EB380B3206823694A
:101960006269B145CB4628BFB34698425F4604D969
:10197000A36813449B4500F3A68093454BDB1346B5
:10198000676AE16900982A46B847071ED4DDB9EBBB
:101990000709CCD00120DAF80830DB1B3D44F61BE8
:1019A000CAF80830002B3FF478AF002ED5D108F1EB
:1019B000080313E9600098460833002EF9D0324638
:1019C0000A21284600F014FC002800F0A180013014
:1019D000A0EB0509C2E720682369984202D8636931
:1019E0009F425DD2B84528BFB8464246494600F0FE
:1019F000E9FCA3682268A3EB08034244A3602260C9
:101A00000BB1C24679E721460098FFF737FD002861
:101A100092D1C24671E75A46294600F0D3FCA2682B
:101A20002368A2EB0B025B44A2602360AFE720684F
:101A3000B846BA46BB4655E762692068216902EBA1
:101A40004208A0EB010A08EBD8780AF101004FEA3E
:101A5000680838444045424684BF804642465B059C
:101A600044D51146009800F013F98346002855D05C
:101A70005246216900F00CFCA38923F4906343F0E3
:101A80008003A3810BEB0A00A8EB0A03C4F810B093
:101A9000C4F814802060A360B846BA46BB4621E76C
:101AA0006FF00041B94228BF39464A4691FBF3F135
:101AB0000098666A03FB01F3E169B047B0F1000AE0
:101AC0003FF71BAF38E71A462946019300F07AFC2E
:101AD0002268019B00981A4422602146FFF7CEFC41
:101AE000019B00287FF428AF1F4650E7009800F0C4
:101AF000D9FC83460028C5D1009D21692846FFF7FF
:101B0000B7FDB4F90C300C2223F080032A6015E7EE
:101B100006F1010922E74FF0FF30BFE6009A0C23DF
:101B20001360B4F90C3009E700FCFF7F2DE9F8439E
:101B300010F538771FD0884606464FF000097D68BB
:101B4000BC68013D11D4A389012B05F1FF3508D9EB
:101B5000B4F90E3001332146304602D0C04749EA7D
:101B600000096B1C04F16804EDD13F68002FE6D139
:101B70004846BDE8F883B9464846BDE8F88300BF4B
:101B8000704700BF704700BF704700BF704700BF7D
:101B900070B50C46B1F90E10002990B015461E46DE
:101BA00014DB01AA00F0CAFF00280FDB029A02F43E
:101BB0007042A2F50052B2FA82F252094FF48063E9
:101BC0004FF4006032602B6010B070BDA28900231A
:101BD00012F08000336004D0402218462A6010B012
:101BE00070BD4FF480632B6010B070BD8A8992077E
:101BF0000B4606D501F1430201211A601A615961B1
:101C00007047F0B583B001AB6A460C460646FFF755
:101C1000BFFF00990546304600F03AF8B4F90C30A1
:101C2000D8B1019A154F0099F76343F08003A3815F
:101C30002060206161611AB92B43A38103B0F0BD1C
:101C40003046B4F90E1000F08DFFA0B1A38923F047
:101C5000030343F001031BB2EEE79A05EED423F031
:101C6000030304F1430243F002030121A381226034
:101C700022616161E2E7B4F90C30DDE7D114400084
:101C8000024B0146186800F003B800BFFC07402073
:101C90002DE9F04F01F10B06162E83B0054640F2F8
:101CA0009E8036F0070600F1BD80B14200F2BA8096
:101CB00000F0ECFBB6F5FC7FC0F09382730A00F0F5
:101CC000B880042B00F27981B30903F1390003F1E4
:101CD000380EC300BF4F3B44A3F108015C68A1422A
:101CE00006D10CE0002A80F2AA80E468A14206D066
:101CF000636823F003039A1B0F2AF3DD70463C69E7
:101D0000DFF8E4E2744500F0AB81636823F003037D
:101D10009A1B0F2A00F39081002AC7F814E0C7F835
:101D200010E080F29D80B3F5007F80F06181DB08D8
:101D300003F1010C99107A6857F83C80C4F80880C8
:101D400001238B4007EBCC0113430839E1607B6032
:101D500047F83C40C8F80C408210012494409C4253
:101D600000F28B801C4206D120F0030064001C426C
:101D700000F10400FAD007EBC009CC468046DCF83D
:101D80000C309C4507D16DE1002A80F27B81DB6835
:101D90009C4500F06781596821F003018A1B0F2AD6
:101DA000F2DDD3F80CC0D3F8088000939C192846C4
:101DB00046F0010642F001055E60C8F80CC0CCF8A0
:101DC00008807C613C61C4F80CE0C4F808E0656000
:101DD0005A5000F061FB009B03F108041EE010293B
:101DE00020D800F053FB102618230220794F3B44E3
:101DF000A3F108025C68944200F03D816368E168E9
:101E0000A66823F00303234428465A68F16042F091
:101E100001028E605A6000F03FFB0834204603B098
:101E2000BDE8F08F00240C2320462B6003B0BDE8F2
:101E3000F08F40204FF400734FF03F0E4AE72344E9
:101E4000E1685A68A66842F00102F16028468E6097
:101E50005A6000F021FB0834204603B0BDE8F08F43
:101E6000234428465A6842F001025A6000F014FBED
:101E70000834204603B0BDE8F08FBC68636823F0E7
:101E80000308B04504D3A8EB06030F2B00F38580AD
:101E9000DFF85891504BD9F800201B6801323344C9
:101EA00004EB080A00F0558103F580530F3323F447
:101EB0007F6B2BF00F0B5946284600F099FC411C14
:101EC000024600F0FC80824500F2F780434B19681F
:101ED0005944196000F04D81D9F8000001301BBF52
:101EE000A2EB0A0A5144C9F80020196012F0070158
:101EF00000F01581C1F10800C1F58051024408319C
:101F000002EB0B09C9F30B09A1EB09094946284665
:101F10000193009200F06CFC431C9DE80C0000F063
:101F20004381801A484440F001001968BA6049446E
:101F3000BC425060196017D0B8F10F0F40F2FB801F
:101F40006068A8F10C0222F0070204EB020E00F018
:101F500001004FF0050C10430F2A6060CEF804C05A
:101F6000CEF808C000F217811D4BBC681A68914278
:101F700088BF19601B4B1A689142626888BF19605C
:101F800022F003029642A2EB060301D80F2B04DCD9
:101F9000284600F081FA002440E7A21943F001032B
:101FA00046F0010666602846BA60536000F074FA95
:101FB0000834204603B0BDE8F08F142B71D9542BA0
:101FC00000F2A380330B03F16F0003F16E0EC30028
:101FD00080E600BF2C0C4020E8134020B8134020BE
:101FE000E0134020E4134020340C40203410402003
:101FF0005A0A042A5BD9142A00F2AE8002F15C016D
:10200000C9005B3207EB010C7958ACF1080C8C4528
:1020100000F088804A6822F00302934273D28968F4
:102020008C45F7D1DCF80C207B68E260C4F808C06E
:102030009460CCF80C408FE6A11946F0010C42F0F8
:102040000106C4F804C0284679613961C1F80CE082
:10205000C1F808E04E60E25000F01EFA0834DDE6F8
:102060007B6879E608F1010818F0030F0CF1080C01
:102070007FF485AE2DE0DC68A34208BF02303FF458
:102080003EAEBBE619441C464A68DB6854F8086F4C
:1020900042F001024A602846F3609E6000F0FCF9BD
:1020A000BCE603F15C0003F15B0EC30012E69A0983
:1020B00002F13901C9003832A4E7BC4254D0BC68EF
:1020C000626822F003025DE759F80839994540F04B
:1020D000868010F0030F00F1FF30F5D17B6823EA12
:1020E00004037B6064009C423FF6C7AE002C3FF4C3
:1020F000C4AE1C4240467FF43EAE64001C4200F178
:102100000400FAD037E68C468CE7B3F5AA7F15D8E1
:10211000F30B03F1780003F1770EC300DAE54FF417
:102120008051EDE67B689210012101FA02F213431F
:102130007B60624679E70123536029E740F25452FD
:10214000934222D8B30C03F17D0003F17C0EC3004F
:10215000C0E503F1100BAEE6542A29D81A0B02F1A0
:102160006F01C9006E324DE7204B19685944196060
:10217000B2E6CAF30B0000287FF4AEAE08EB0B0307
:10218000BA6843F001035360EEE67F204FF47E739C
:102190004FF07E0E9EE504F1080128460093FFF7FC
:1021A00067FA009B1968DFE601204FF00009BCE6E2
:1021B000B2F5AA7F05D8DA0B02F17801C9007732AF
:1021C00020E740F254518A4205D89A0C02F17D0171
:1021D000C9007C3216E74FF47E717E2212E77B68DD
:1021E00080E7F00806F1080300E600BFB8134020BE
:1021F00001F0FF01102A2BDB10F0070F08D010F8B8
:10220000013B013A8B422DD010F0070F42B3F6D1BB
:10221000F0B441EA012141EA014122F007047FF0D4
:1022200000070023F0E80256083C85EA010586EA2B
:10223000010685FA47F5A3FA87F586FA47F6A5FA67
:1022400087F68EB9EED1F0BC01F0FF0102F0070273
:1022500032B110F8013B013A83EA010313B1F8D11E
:102260000020704701387047002D06BF35460338FF
:10227000073815F0010F07D1013015F4807F02BF38
:10228000013015F4C03F0130F0BC0138704700BF89
:10229000844641EA000313F003036DD1403A41D371
:1022A00051F8043B40F8043B51F8043B40F8043B30
:1022B00051F8043B40F8043B51F8043B40F8043B20
:1022C00051F8043B40F8043B51F8043B40F8043B10
:1022D00051F8043B40F8043B51F8043B40F8043B00
:1022E00051F8043B40F8043B51F8043B40F8043BF0
:1022F00051F8043B40F8043B51F8043B40F8043BE0
:1023000051F8043B40F8043B51F8043B40F8043BCF
:1023100051F8043B40F8043B51F8043B40F8043BBF
:10232000403ABDD2303211D351F8043B40F8043B5F
:1023300051F8043B40F8043B51F8043B40F8043B9F
:1023400051F8043B40F8043B103AEDD20C3205D36F
:1023500051F8043B40F8043B043AF9D2043208D067
:10236000D2071CBF11F8013B00F8013B01D30B88D9
:1023700003806046704700BF082A13D38B078DD0B7
:1023800010F003038AD0C3F10403D21ADB071CBF89
:1023900011F8013B00F8013B80D331F8023B20F8F3
:1023A000023B7BE7043AD9D3013A11F8013B00F82C
:1023B000013BF9D20B7803704B7843708B788370B4
:1023C000604670478842F0B50DD98B1898420AD202
:1023D0008418002A51D0224613F8014D02F8014D0D
:1023E0009942F9D1F0BD0F2A48D941EA00039B0771
:1023F00046D100F1100401F11003154653F8106C9A
:1024000044F8106C53F80C6C44F80C6C53F8086CDE
:1024100044F8086C103D53F8046C44F8046C0F2D1C
:1024200003F1100304F11004E8D8A2F1100323F023
:102430000F0302F00F0E1033BEF1030F19440344D3
:1024400021D91E1F0D467446043C55F8047B46F8FE
:10245000047F032CF8D8AEF1040424F00304043400
:102460002144234402F0030262B1013B0A4411F803
:10247000014B03F8014F8A42F9D1F0BD0346F3E75F
:102480000346F2E7F0BD7246EEE700BF0148FFF7F2
:102490007BBB00BFFC1740200148FFF777BB00BFA4
:1024A000FC174020002900F095802DE9F04F0D46E3
:1024B000164683B0804606F10B07FFF7E7FF55F895
:1024C00004EC162F2EF00304A5F108093CD81022C5
:1024D0001746BE423DD8944243DAC44B996809EB93
:1024E0000400884200F0B480436823F001010144F5
:1024F0004968C9074CD51EF0010F00F09B8031469A
:102500004046FFF7C5FB064600283AD055F8043C84
:1025100023F001034B44A0F108029A4200F021810C
:10252000221F242A00F20781132A00F2DB800346CF
:102530002A46116819605168596092689A60294664
:102540004046FFF795F81CE027F00707002F3A46B2
:10255000BFDA00260C233046C8F8003003B0BDE8CF
:10256000F08F2E46E31B0F2B1ED8D9F8043003F052
:10257000010323434C44C9F80430636843F001036A
:1025800063604046FFF788FF304603B0BDE8F08F38
:1025900023F00303E11891421FDBC36882682E46D3
:1025A000D3600C469A60DDE7D9F8042009EB0701F7
:1025B00002F001024C4443F001031743C9F80470D0
:1025C0004B60636843F00103083163604046FFF7E6
:1025D0004FF8D6E71146FFF75BBB1EF0010F8ED117
:1025E00055F8081CA9EB010ADAF8041021F00301E0
:1025F0000B442344934225DBC26881685646CA6077
:102600009160DAF80C1056F8080F221F242AC160D6
:10261000886000F29480132A6FD92968CAF80810DC
:102620006968CAF80C101B2A00F2A28008350AF16A
:10263000100263E055F8083CA9EB030ADAF804102D
:1026400021F0030163189342FFF659AF5646D8E7CD
:10265000416821F0030BA34407F11000834556DACB
:102660001EF0010F7FF44BAF55F8081CA9EB010ACF
:10267000DAF8041021F003018B445845E2DC564699
:10268000DAF80C1056F8080F221F242AC16088605F
:1026900000F28F80132A40F28A802968CAF8081055
:1026A0006968CAF80C101B2A00F28A8008350AF102
:1026B00010022968116069685160A96891600AEB8D
:1026C0000701ABEB070242F0010299604A60DAF8B9
:1026D000043003F001031F434046CAF80470FFF7BB
:1026E000DBFE51E72B6803606B6843601B2A2DD823
:1026F00000F1080305F108021BE732462968116062
:1027000069685160A96891601C46D1462AE709EBC7
:102710000701ABEB070B4BF0010299604A6055F8DB
:10272000043C03F001031F43404645F8047CFFF7D7
:10273000B3FE2E4628E72946FFF744FEFFE629466A
:1027400030461C46D146FFF73DFE0BE7AB68836081
:10275000EB68C360242A17D000F1100305F11002C2
:10276000E7E650F8043C23F003031C442E46F9E648
:10277000A968CAF81010E968CAF81410242A0CD005
:1027800010350AF11802B9E72B6903616B694361DF
:1027900005F1180200F11803CBE62A69CAF81820DF
:1027A0006A69CAF81C2018350AF12002A6E73246E9
:1027B0007FE7294630460193FFF704FE019B7EE741
:1027C000A968CAF81010E968CAF81410242A03D0BE
:1027D00010350AF118026CE72A69CAF818206A69EC
:1027E000CAF81C2018350AF1200262E72C0C4020A0
:1027F00038B5074C0023054608462360FEF716F857
:10280000431C00D038BD2368002BFBD02B6038BDA3
:102810001018402010B50C46B1F90E1000F0CAF99E
:10282000002803DB236D0344236510BDA38923F433
:102830008053A38110BD00BF2DE9F0411646B1F9C8
:102840000C201F46D3050C46054607D5002202235F
:10285000B1F90E1000F098F9B4F90C20B4F90E108B
:1028600022F48052A2813B4632462846BDE8F04120
:1028700000F014B810B50C46B1F90E1000F084F950
:10288000A389421C0EBF23F4805343F48053206578
:10289000A38110BDB1F90E1000F0DCB870B50D4683
:1028A000084C114606461A46284600232360FDF7C9
:1028B000E5FF431C00D070BD2368002BFBD03360C4
:1028C00070BD00BF1018402038B5304B1B6805465E
:1028D0000C4613B19A6B002A38D0B4F90C2093B28D
:1028E00018070CD52069A8B113F001021ED0636946
:1028F00000225B42A361A260F0B1002038BDD9067E
:102900003CD5580726D4206942F00803A3819BB226
:102910000028E9D103F42072B2F5007FE4D0284604
:102920002146FFF763F9A3892069DDE7990758BFBE
:102930006269A2600028E0D1B4F90C301A06DDD536
:1029400043F04003A3814FF0FF3038BD1846FEF737
:10295000EDFDC2E7216B51B104F14003994204D06F
:102960002846FEF785FEB4F90C20002323630023DC
:102970002069636022F024022060C5E742F0400233
:1029800009232B604FF0FF30A28138BDFC074020A7
:102990002DE9F8432C4D0646286898460F46914687
:1029A000FFF7F2F8294B1C68D4F84831002B3ED0D1
:1029B0005A681F2A1CDC02F1010E76B103EB82017A
:1029C0000124C1F88890D3F8880194402043022E56
:1029D000C3F88801C1F8088123D00232C3F804E0AB
:1029E000286843F82270FFF7D1F80020BDE8F8838B
:1029F000174B0BB34FF4C870FFF742F90346D8B139
:102A0000D4F848210260002141600A46C4F8480118
:102A10004FF0010EC0F88811C0F88C11002EDCD0E8
:102A2000CCE7D3F88C110C43C3F88C41D5E704F5FF
:102A3000A673C4F84831BBE72868FFF7A7F84FF042
:102A4000FF30BDE8F88300BF280C40200C2C40006C
:102A5000811C400038B5074C00230546084623601A
:102A6000FDF700FF431C00D038BD2368002BFBD0CE
:102A70002B6038BD1018402070B559B105460C4682
:102A800010B1836B002B3CD0636ED80705D5B4F929
:102A90000C302BB90026304670BDA38999053CD572
:102AA00021462846FEF74AFCE36A064633B1E1694F
:102AB000284698470028B8BF4FF0FF36A3891A066A
:102AC00022D4216B41B104F14003994202D028463F
:102AD000FEF7CEFD00232363616C21B12846FEF78B
:102AE000C7FD00236364FEF74DFD636E0022DB0724
:102AF000A2810ED5A06DFFF745F8FEF749FD3046DF
:102B000070BDFEF713FDBFE721692846FEF7B0FD53
:102B1000D7E7A06DFFF73AF8ECE7A06DFFF734F8C0
:102B2000B4F90C30002BBBD1666E16F00106B1D1A2
:102B3000A06DFFF72BF8304670BD00BF38B50B46CF
:102B4000074C05461146184600232360FDF78DFE0D
:102B5000431C00D038BD2368002BFBD02B6038BD50
:102B60001018402038B5074C00230546084623605E
:102B7000FDF780FE431C00D038BD2368002BFBD03E
:102B80002B6038BD1018402070B50D46084C11461A
:102B900006461A46284600232360FDF76DFE431CB7
:102BA00000D070BD2368002BFBD0336070BD00BF28
:102BB0001018402070B50D46084C114606461A46BE
:102BC000284600232360FDF781FE431C00D070BD22
:102BD0002368002BFBD0336070BD00BF101840206D
:102BE0004669722046696C74657220466972696E26
:102BF0006720557021200D0061000000436F6E7446
:102C0000696E75652E2E2E0D000000000008402014
:102C10000A000000F8B500BFF8BC08BC9E4670472B
:102C20001D1340008D014000F8B500BFF8BC08BC82
:082C30009E4670476901400057
:102C3800001BB700FE000000A77BEC38B7925C3899
:102C4800CBE48638C762A238CACFC038FC3EE23827
:102C5800C047033917DE16391BD52B39562E423992
:102C68006DC35939C5707239A20586393B4A933903
:102C7800D2D8A039D88BAE39675DBC394B07CA3971
:102C8800AD79D739427BE439D5E0F0390471FC39A4
:102C98000A7C033A791D083A36FD0B3A33FA0E3AA4
:102CA80006F5103AA1CC113A8A5C113AED850F3A33
:102CB800A6240C3A9915073A023B003ACAE3EE39C2
:102CC8000E3CD939F141BF391DC5A03999297B3945
:102CD800AA122B390603A2389AD699B7A8C801B9FF
:102CE800D2B37AB956FABEB9CDDD02BA16C128BA3E
:102CF800E21451BAC8C07BBA615294BACFCDABBA0C
:102D0800B83BC4BAB182DDBAD184F7BAB41009BBF2
:102D1800119A16BBC64A24BB170D32BB22CA3FBB49
:102D280044694DBB57D05ABB2DE467BB188874BBA8
:102D3800444F80BB7C0486BB15548BBB2F2E90BBA5
:102D48009E8294BB404198BBE3599BBB7ABC9DBB18
:102D58002B599FBB8A20A0BB7903A0BB92F39EBBD3
:102D680012E39CBBFEC499BB548D95BB133190BB39
:102D780071A689BBD4E481BB09CA71BB86425DBB1D
:102D8800932A46BBF97C2CBBD83710BB94B9E2BA5E
:102D9800D8E19FBAE0F42FBA41C6B1B8012F0D3A75
:102DA80008F99C3A63D8F73A297F2B3B2B165D3BF1
:102DB8002747883BA7E0A23BCC42BE3B2E57DA3BD5
:102DC800F405F73BF31A0A3C44E6183C1ED7273CA7
:102DD80036DF363CD0EF453CDCF9543C05EE633C2D
:102DE800CABC723C45AB803CD3D5873C4BD68E3CA5
:102DF800FCA4953C543A9C3CF28EA23CA89BA83C6F
:102E08008B59AE3C00C2B33CC0CEB83CE479BD3C63
:102E1800F0BDC13CDC95C53C18FDC83C96EFCB3CE9
:102E2800D269CE3CD268D03C30EAD13C1EECD23CD0
:102E3800636DD33C636DD33C1EECD23C30EAD13C8D
:102E4800D268D03CD269CE3C96EFCB3C18FDC83C4A
:102E5800DC95C53CF0BDC13CE479BD3CC0CEB83C76
:102E680000C2B33C8B59AE3CA89BA83CF28EA23C56
:102E7800543A9C3CFCA4953C4BD68E3CD3D5873C1D
:102E880045AB803CCABC723C05EE633CDCF9543C63
:102E9800D0EF453C36DF363C1ED7273C44E6183C8D
:102EA800F31A0A3CF405F73B2E57DA3BCC42BE3BFB
:102EB800A7E0A23B2747883B2B165D3B297F2B3B8E
:102EC80063D8F73A08F99C3A012F0D3A41C6B1B8D0
:102ED800E0F42FBAD8E19FBA94B9E2BAD83710BB58
:102EE800F97C2CBB932A46BB86425DBB09CA71BBE1
:102EF800D4E481BB71A689BB133190BB548D95BBBB
:102F0800FEC499BB12E39CBB92F39EBB7903A0BBA2
:102F18008A20A0BB2B599FBB7ABC9DBBE3599BBBA6
:102F2800404198BB9E8294BB2F2E90BB15548BBBFF
:102F38007C0486BB444F80BB188874BB2DE467BBF8
:102F480057D05ABB44694DBB22CA3FBB170D32BB91
:102F5800C64A24BB119A16BBB41009BBD184F7BA70
:102F6800B182DDBAB83BC4BACFCDABBA615294BA1C
:102F7800C8C07BBAE21451BA16C128BACDDD02BA6C
:102F880056FABEB9D2B37AB9A8C801B99AD699B7D0
:102F98000603A238AA122B3999297B391DC5A039F5
:102FA800F141BF390E3CD939CAE3EE39023B003A48
:102FB8009915073AA6240C3AED850F3A8A5C113A1E
:102FC800A1CC113A06F5103A33FA0E3A36FD0B3A0F
:102FD800791D083A0A7C033A0471FC39D5E0F039C6
:102FE800427BE439AD79D7394B07CA39675DBC39BB
:102FF800D88BAE39D2D8A0393B4A9339A205863945
:10300800C57072396DC35939562E42391BD52B39C3
:1030180017DE1639C0470339FC3EE238CACFC0383C
:10302800C762A238CBE48638B7925C38A77BEC3805
:1030380007A864B829407D3918F08F38F885B4B8E6
:103048000A13E9B79789F138A0C3C237C46A10B91F
:103058007C175CB756462A39D2DDA4B5FF7745B947
:1030680047F4AB370C7E613959033EB8E79E7DB90A
:103078008AAB9F38DD8B8C39D306EEB84C7899B97A
:10308800376D25399E11A5394E785BB9F8B9AEB9B7
:1030980052A48C39F2C9B539B279AFB9C687B9B972
:1030A8002D1DD6399842B939873500BADE35B4B9FD
:1030B800650C173AAE98A939316B2FBAF28098B9D6
:1030C80098F9483AA2408039ED7263BAB91A40B902
:1030D80015777E3A205CDC38D2BF8CBA708C1AB770
:1030E800CB0A9A3AEA99DDB8DDC8A6BA4C187C39F9
:1030F80027A8B23A9586CFB9724ABDBACC03163A18
:10310800084EC63A3FD149BAC245CDBAFF8D813A79
:10311800D4C0D13A93E1A0BA6547D3BA4CC4C23AF5
:103128006D63D13A8606E7BA5898CBBAE9B3063B3D
:103138004666C13A01D01ABB514FB2BADAA92F3B41
:1031480037DB9D3AEC0745BB458B83BAABAC5A3BA2
:1031580038D0453AF15370BB4A0DEEB9BBD3823B28
:10316800B17ECE38CE2A8DBB7036A53936FC963B5B
:10317800D50F4FBA4314A0BB8E24AE3AE738A83B0C
:10318800D783FDBABF2BAFBBC4012B3BD0A8B43B40
:1031980060035CBB3766B8BB3EFE883B8F12BA3B08
:1031A800B395A6BB7653B9BB1AEEC63B10C3B53B65
:1031B8001438EABBB5EBAEBB5A5A083C7142A43B83
:1031C800775E1DBCCB1D95BBDF66343CEBA8803B0E
:1031D800D5CC4DBC80994BBBE8126A3C441C063BDD
:1031E80091FD84BC5E8732BA5758973CB1438EBA7A
:1031F8006707ADBC48225F3B0E98C73CE516D6BBB7
:10320800BDCFE9BC4F4C333C638D0C3D174390BC9C
:10321800E6D030BD04FCEC3C2CA0723D6C2958BDB6
:10322800D693CCBDE55D0E3E8BD6EB3E8BD6EB3E02
:10323800E55D0E3ED693CCBD6C2958BD2CA0723DE1
:1032480004FCEC3CE6D030BD174390BC638D0C3DCC
:103258004F4C333CBDCFE9BCE516D6BB0E98C73CF6
:1032680048225F3B6707ADBCB1438EBA5758973CBD
:103278005E8732BA91FD84BC441C063BE8126A3C66
:1032880080994BBBD5CC4DBCEBA8803BDF66343C6A
:10329800CB1D95BB775E1DBC7142A43B5A5A083CB6
:1032A800B5EBAEBB1438EABB10C3B53B1AEEC63B50
:1032B8007653B9BBB395A6BB8F12BA3B3EFE883B8B
:1032C8003766B8BB60035CBBD0A8B43BC4012B3BDA
:1032D800BF2BAFBBD783FDBAE738A83B8E24AE3AE5
:1032E8004314A0BBD50F4FBA36FC963B7036A539B0
:1032F800CE2A8DBBB17ECE38BBD3823B4A0DEEB908
:10330800F15370BB38D0453AABAC5A3B458B83BAC6
:10331800EC0745BB37DB9D3ADAA92F3B514FB2BAD0
:1033280001D01ABB4666C13AE9B3063B5898CBBAF6
:103338008606E7BA6D63D13A4CC4C23A6547D3BA38
:1033480093E1A0BAD4C0D13AFF8D813AC245CDBA33
:103358003FD149BA084EC63ACC03163A724ABDBAAA
:103368009586CFB927A8B23A4C187C39DDC8A6BAD9
:10337800EA99DDB8CB0A9A3A708C1AB7D2BF8CBAE0
:10338800205CDC3815777E3AB91A40B9ED7263BA19
:10339800A240803998F9483AF28098B9316B2FBA2F
:1033A800AE98A939650C173ADE35B4B9873500BA35
:1033B8009842B9392D1DD639C687B9B9B279AFB98E
:1033C800F2C9B53952A48C39F8B9AEB94E785BB99F
:1033D8009E11A539376D25394C7899B9D306EEB8C1
:1033E800DD8B8C398AAB9F38E79E7DB959033EB88F
:1033F8000C7E613947F4AB37FF7745B9D2DDA4B508
:1034080056462A397C175CB7C46A10B9A0C3C237BC
:103418009789F1380A13E9B7F885B4B818F08F38E6
:1034280029407D3907A864B8310B400000084020C6
:1034380000000000EC0A4020540B4020BC0B402048
:103448000000000000000000000000000000000074
:103458000000000000000000000000000000000064
:103468000000000000000000000000000000000054
:103478000000000000000000000000000000000044
:103488000000000000000000000000000000000034
:103498000000000000000000000000000000000024
:1034A8000000000000000000000000000000000014
:1034B8000000000000000000000000000000000004
:1034C80000000000000000000000000000000000F4
:1034D80000000000000000000100000000000000E3
:1034E8000E33CDAB34126DE6ECDE05000B000000A8
:1034F80000000000000000000000000000000000C4
:1035080000000000000000000000000000000000B3
:1035180000000000000000000000000000000000A3
:103528000000000000000000000000000000000093
:103858000000000000000000EC17402000000000FD
:10386800000000002C0C40202C0C4020340C402080
:10387800340C40203C0C40203C0C4020440C4020A0
:10388800440C40204C0C40204C0C4020540C402050
:10389800540C40205C0C40205C0C4020640C402000
:1038A800640C40206C0C40206C0C4020740C4020B0
:1038B800740C40207C0C40207C0C4020840C402060
:1038C800840C40208C0C40208C0C4020940C402010
:1038D800940C40209C0C40209C0C4020A40C4020C0
:1038E800A40C4020AC0C4020AC0C4020B40C402070
:1038F800B40C4020BC0C4020BC0C4020C40C402020
:10390800C40C4020CC0C4020CC0C4020D40C4020CF
:10391800D40C4020DC0C4020DC0C4020E40C40207F
:10392800E40C4020EC0C4020EC0C4020F40C40202F
:10393800F40C4020FC0C4020FC0C4020040D4020DE
:10394800040D40200C0D40200C0D4020140D40208B
:10395800140D40201C0D40201C0D4020240D40203B
:10396800240D40202C0D40202C0D4020340D4020EB
:10397800340D40203C0D40203C0D4020440D40209B
:10398800440D40204C0D40204C0D4020540D40204B
:10399800540D40205C0D40205C0D4020640D4020FB
:1039A800640D40206C0D40206C0D4020740D4020AB
:1039B800740D40207C0D40207C0D4020840D40205B
:1039C800840D40208C0D40208C0D4020940D40200B
:1039D800940D40209C0D40209C0D4020A40D4020BB
:1039E800A40D4020AC0D4020AC0D4020B40D40206B
:1039F800B40D4020BC0D4020BC0D4020C40D40201B
:103A0800C40D4020CC0D4020CC0D4020D40D4020CA
:103A1800D40D4020DC0D4020DC0D4020E40D40207A
:103A2800E40D4020EC0D4020EC0D4020F40D40202A
:103A3800F40D4020FC0D4020FC0D4020040E4020D9
:103A4800040E40200C0E40200C0E4020140E402086
:103A5800140E40201C0E40201C0E4020240E402036
:103A6800240E40202C0E40202C0E4020340E4020E6
:103A7800340E40203C0E40203C0E4020440E402096
:103A8800440E40204C0E40204C0E4020540E402046
:103A9800540E40205C0E40205C0E4020640E4020F6
:103AA800640E40206C0E40206C0E4020740E4020A6
:103AB800740E40207C0E40207C0E4020840E402056
:103AC800840E40208C0E40208C0E4020940E402006
:103AD800940E40209C0E40209C0E4020A40E4020B6
:103AE800A40E4020AC0E4020AC0E4020B40E402066
:103AF800B40E4020BC0E4020BC0E4020C40E402016
:103B0800C40E4020CC0E4020CC0E4020D40E4020C5
:103B1800D40E4020DC0E4020DC0E4020E40E402075
:103B2800E40E4020EC0E4020EC0E4020F40E402025
:103B3800F40E4020FC0E4020FC0E4020040F4020D4
:103B4800040F40200C0F40200C0F4020140F402081
:103B5800140F40201C0F40201C0F4020240F402031
:103B6800240F40202C0F40202C0F4020340F4020E1
:103B7800340F40203C0F40203C0F4020440F402091
:103B8800440F40204C0F40204C0F4020540F402041
:103B9800540F40205C0F40205C0F4020640F4020F1
:103BA800640F40206C0F40206C0F4020740F4020A1
:103BB800740F40207C0F40207C0F4020840F402051
:103BC800840F40208C0F40208C0F4020940F402001
:103BD800940F40209C0F40209C0F4020A40F4020B1
:103BE800A40F4020AC0F4020AC0F4020B40F402061
:103BF800B40F4020BC0F4020BC0F4020C40F402011
:103C0800C40F4020CC0F4020CC0F4020D40F4020C0
:103C1800D40F4020DC0F4020DC0F4020E40F402070
:103C2800E40F4020EC0F4020EC0F4020F40F402020
:103C3800F40F4020FC0F4020FC0F402004104020CF
:103C4800041040200C1040200C104020141040207C
:103C5800141040201C1040201C104020241040202C
:0C3C680024104020FFFFFFFF00000200BE
:0400000500400000B7
:00000001FF
