S01500004469676974616C46696C7465722E73726563EB
S214400000C80D4020AD044000A9044000A9044000AB
S214400010A9044000A9044000A904400000000000D4
S214400020000000000000000000000000A90440009E
S214400030A904400000000000A9044000A9044000B4
S214400040A9044000A9044000A9044000A9044000B7
S214400050A9044000A9044000A9044000A9044000A7
S214400060A904400000000000A9044000A904400084
S214400070A9044000A9044000A9044000A904400087
S214400080A9044000A9044000A9044000A904400077
S214400090A9044000A9044000A90440008D06400081
S2144000A0A9044000A9044000A9044000A904400057
S2144000B0A904400061064000E9064000A90440004B
S2144000C0A9044000A9044000A9044000A904400037
S2144000D0A9044000A9044000A9044000A904400027
S2144000E0A9044000A9044000A9044000A904400017
S2144000F0A9044000A9044000A9044000A904400007
S214400100A9044000A9044000A9044000A9044000F6
S214400110A9044000000000000000000000000000AD
S214400120A9044000A9044000A9044000A9044000D6
S214400130A9044000A9044000A9044000A9044000C6
S214400140A9044000A9044000A9044000A9044000B6
S214400150A9044000A9044000A9044000A9044000A6
S214400160A9044000A904400010B5054C237833B9D3
S214400170044B13B10448AFF300800123237010BD35
S214400180CC05402000000000F00940000C4B43B175
S2144001900C480D4910B5AFF300800C48036823B9EE
S2144001A010BD0A48036833B97047094B002BF7D097
S2144001B0BDE810401847064B002BF5D0184700BF47
S2144001C000000000F0094000D0054020F009400043
S2144001D00000000010B4174B1D22C3F80C21D3F8C2
S2144001E00C2142F01022C3F80C21134B01221A6056
S2144001F0000280B21149014359604FF00071996086
S2144002004FF44371C3F89410002159664FF40071BF
S214400210D9660B494FF00050C1F88001202481F880
S2144002201D4308605A625A6102221A605DF8044B08
S214400230704700BF00060E4000C003400000842FF9
S21440024000E100E0454B0A22C3F80C21D3F80C210C
S21440025042F01022C3F80C210B22C3F80C21D3F82D
S2144002600C2142F01022C3F80C210C22C3F80C21BA
S214400270D3F80C2142F01022C3F80C211022C3F808
S2144002800C21D3F80C2142F01022C3F80C21112285
S214400290C3F80C21D3F80C2142F01022C3F80C21ED
S2144002A003F540631A6942F480721A61D3F8A020BD
S2144002B042F48072C3F8A0205A6B42F480725A63AC
S2144002C01A6942F480621A61D3F8A02042F4806230
S2144002D0C3F8A0205A6B42F480625A63A3F5806349
S2144002E05A6942F400625A61D3F8A02042F4006290
S2144002F0C3F8A0205A6E42F400625A66D3F89020A3
S21440030042F40062C3F890205A6D42F400625A6587
S2144003101A6A42F400621A62D3F8842042F40062F9
S214400320C3F884201A6F22F400621A675A6F22F4C8
S21440033000625A67D3F8C02042F40062C3F8C02077
S214400340D3F8D42042F40062C3F8D420D3F8B020C7
S21440035042F40062C3F8B020704700BF00060E406B
S214400360F8B5324A536843F400435360BFF34F8FA7
S214400370BFF36F8F2E4B0021C3F85012BFF34F8F41
S214400380BFF36F8F5A6942F400325A61BFF34F8F02
S214400390BFF36F8FC3F88410BFF34F8FD3F88070CE
S2144003A0C7F34E35C7F3C9076E014FEA877C43F65D
S2144003B0E07E1C4606EA0E0062463B4642EA0001E4
S2144003C0C4F86012013B02F14042B3F1FF3FF5D161
S2144003D0013D203EB5F1FF3FECD1BFF34F8F144BAC
S2144003E05A6942F480325A61BFF34F8FBFF36F8F22
S2144003F0104A11495160A1F580715160BFF34F8F8B
S214400400BFF36F8FD3F8902222F00102C3F89022F8
S214400410D3F8942222F00102C3F89422BFF34F8F00
S214400420BFF36F8F054B9847F8BD00BF50180E407E
S21440043000ED00E0000C0E400C08005A450240005B
S214400440164B1E22C3F80C21D3F80C2142F0102282
S214400450C3F80C21124B01211960D3F8E400114A6D
S2144004600243C3F8E420D3F8E420C3F8E4205A68F3
S21440047042F070625A609A689A60D3F8942042F0CC
S2144004800302C3F894209A69196112F4807F04D15C
S2144004901A46936913F4807FFBD0704700060E40DF
S2144004A00000044000434144FEE7000008B5174BF7
S2144004B0174A9A4210D0174B144A9A420CD2013B24
S2144004C09B1A23F0030304331344114951F8040BD9
S2144004D042F8040B9A42F9D10F4B104A9A420AD27C
S2144004E0013B9B1A23F0030304331344002142F8D4
S2144004F0041B9342FBD10A4A0A4B23F07F039360C6
S214400500094B9847094B9847FEE700BF000040203C
S214400510F0094000CC054020C4074020CC054020D0
S21440052000ED00E00000400059084000D5054000BE
S214400530014A024B1A607047001BB700000040207B
S214400540F0B41F4DD5F89471B9000D441D4B1E688C
S2144005501D4B03EB860484ED000A9C4229D3221DE2
S214400560E31A23F00303E41A9FED180A144872EDC9
S214400570017AB0EC017A67EE877A30EE270AA2421B
S214400580F5D1134A13449D420BD90F4A0A4472EDE3
S214400590017AB3EC017A67EE877A30EE270A9D42FD
S2144005A0F5D80136B74208D80022064B1A60F0BC90
S2144005B070479FED060A024BE5E7024B1E60F6E7E2
S2144005C004004020E80540200C06402000000000C3
S2144005D00800402008B5184B9847184B9847184BCA
S2144005E09847184B98470320174B9847174B984700
S2144005F0174AD2F8883043F47003C2F88830BFF305
S2144006004F8FBFF36F8F134C134D2368002BFCD0D6
S2144006106368002BF9D194ED020A104B984784ED9D
S214400620030A012363606B6B43F480736B632B6B2D
S21440063043F480732B63E8E73105400069074000C8
S21440064061034000D9074000D50140004104400006
S21440065000ED00E0EC05402000120E404105400051
S214400660084B1B6B13F0010F0BD0064BD3ED1A7AD9
S214400670F8EE677A044BC3ED027A01221A60002234
S2144006805A60704700C00340EC054020124B1B6880
S21440069013F0100F1FD0114B1B682BB10222104BCA
S2144006A01A6000220D4B1A600E4B1B6B13F0010FA5
S2144006B011D00C4B9B6913F4807F0CD082B0074B53
S2144006C0D3ED037AFCEEE77ACDED017ABDF804303F
S2144006D0044AD36102B0704720C00040EC05402079
S2144006E000C00340000004407047000010490B6AF9
S2144006F0104A1A40104B13430B620A46936E13F08F
S214400700010FFBD00A4A116A0C4B0B431362936EDF
S21440071013F4803FFBD0064A536A13F4803FFBD065
S214400720034B586A80B2B0FA80F04009704700BF69
S21440073000060E40FCC1C8FF013E370000003701EE
S214400740084B4FF000529A6202F5C11202F5F85279
S21440075001329A621A46936E13F0020FFBD00020C5
S214400760704700BF00060E4008B5154AD2F88830DC
S21440077043F47003C2F88830BFF34F8FBFF36F8FD8
S214400780104A114B1A60114B9847114B9847114A23
S214400790136B23F4407343F480731363936E13F028
S2144007A0080FFBD00B4A136B23F0030343F00203FE
S2144007B01363936E13F0080FFBD0002008BD00BFF4
S2144007C000ED00E000060004000C0E40ED06400080
S2144007D04107400000060E401B4B4FF40002C3F892
S2144007E08021202183F817131A60184BD3F80C2168
S2144007F042F01702C3F80C21D3F80C2142F0102225
S214400800C3F80C21A3F55423A3F2FC531A6842F014
S21440081001021A600E490A6842F010020A601A681D
S21440082042F480421A60043B1A6842F001021A60A1
S214400830BB21084A11601A6842F001021A601A6821
S21440084042F004021A60704700E100E000060E40E5
S21440085024C000401CC0004070B50F4E0F4D761BA4
S214400860B61018BF002405D0013455F8043B98470D
S214400870A642F9D10A4E0B4D761B00F0A7F8B610EB
S21440088018BF002406D0013455F8043B9847A642CA
S214400890F9D170BD70BD00BFD8094000D8094000EE
S2144008A0E0094000D8094000024B13B1024800F06E
S2144008B005B8704700000000C90840000023014604
S2144008C01A46184600F01EB838B50A4C0A4D641B46
S2144008D0A4100AD004F18043013B05EB8305013C9C
S2144008E055F804399847002CF9D1BDE8384000F057
S2144008F077B800BFF0094000EC094000704700BFE1
S214400900704700BF2DE9F8432C4D064628689846A8
S2144009100F469146FFF7F2FF294B1C68D4F8483142
S214400920002B3ED05A681F2A1CDC02F1010E76B11D
S21440093003EB82010124C1F88890D3F888019440E3
S2144009402043022EC3F88801C1F8088123D0023222
S214400950C3F804E0286843F82270FFF7D1FF002070
S214400960BDE8F883174B0BB34FF4C870AFF3008065
S2144009700346D8B1D4F848210260002141600A46B7
S214400980C4F848014FF0010EC0F88811C0F88C1129
S214400990002EDCD0CCE7D3F88C110C43C3F88C4146
S2144009A0D5E704F5A673C4F84831BBE72868FFF7D7
S2144009B0A7FF4FF0FF30BDE8F88300BFC8054020D2
S2144009C0C809400000000000A0014020F8B500BF64
S2144009D0F8BC08BC9E467047A90840008D01400000
S2144009E0F8B500BFF8BC08BC9E4670476901400099
S2144009F0001BB700AD2C363802C5A5B8ECD5C6B836
S214400A008291DFB853ADB0B83D2638B71E89EA3874
S214400A107A5C8839A25ECB39E604E539C920B93913
S214400A20BB6DE538FA6F90B9567A3EBA38B192BA8D
S214400A3010EAAABA609B96BA29331ABAFDCEB039E4
S214400A40C453BF3A94E5233B5CE14C3B89AC463B00
S214400A50ACD7053BA2385139CCFD0FBB312197BBF3
S214400A60FCBBD0BB534DDFBB3C27B4BBA0391ABB45
S214400A70A711103B2AB4ED3B697C3D3CCFFD613C61
S214400A800B6D523C785D063C21EB48399B7B22BC83
S214400A909CFCA3BCDD17E1BC939FF2BC38DFC6BC10
S214400AA0255429BCE03D433C578A263D18F0943DEA
S214400AB02518D53D3B7B053E9A69173EA0B31D3EA3
S214400AC09A69173E3B7B053E2518D53D18F0943D68
S214400AD0578A263DE03D433C255429BC38DFC6BCFA
S214400AE0939FF2BCDD17E1BC9CFCA3BC9B7B22BC65
S214400AF021EB4839785D063C0B6D523CCFFD613C9E
S214400B00697C3D3C2AB4ED3BA711103BA0391ABB8B
S214400B103C27B4BB534DDFBBFCBBD0BB312197BB9E
S214400B20CCFD0FBBA2385139ACD7053B89AC463B10
S214400B305CE14C3B94E5233BC453BF3AFDCEB03911
S214400B4029331ABA609B96BA10EAAABA38B192BA52
S214400B50567A3EBAFA6F90B9BB6DE538C920B939B6
S214400B60E604E539A25ECB397A5C88391E89EA38D4
S214400B703D2638B753ADB0B88291DFB8ECD5C6B88D
S214400B8002C5A5B8AD2C3638650000000000000050
S214400B90000000008C044020F40440205C05402007
S214400BA00000000000000000000000000000000000
S214400BB000000000000000000000000000000000F0
S214400BC000000000000000000000000000000000E0
S214400BD000000000000000000000000000000000D0
S214400BE000000000000000000000000000000000C0
S214400BF000000000000000000000000000000000B0
S214400C00000000000000000000000000000000009F
S214400C10000000000000000000000000000000008F
S214400C20000000000000000000000000000000007F
S214400C30000000000000000001000000000000006E
S214400C400E33CDAB34126DE6ECDE05000B00000033
S214400C50000000000000000000000000000000004F
S214400C60000000000000000000000000000000003F
S214400C70000000000000000000000000000000002F
S214400C80000000000000000000000000000000001F
S210400FB00000000000000000A0074020E9
S804400000BB
