:020000040040BA
:10000000800A4020BD044000B9044000B90440000B
:10001000B9044000B9044000B904400000000000E9
:10002000000000000000000000000000B9044000D3
:10003000B904400000000000B9044000B9044000C9
:10004000B9044000B9044000B9044000B9044000BC
:10005000B9044000B9044000B9044000B9044000AC
:10006000B904400000000000B9044000B904400099
:10007000B9044000B9044000B9044000B90440008C
:10008000B9044000B9044000B9044000B90440007C
:10009000B9044000B9044000B9044000B90440006C
:1000A000B9044000B9044000B9044000B90440005C
:1000B000B904400081054000E1054000B90440005A
:1000C000B9044000B9044000B9044000B90440003C
:1000D000B9044000B9044000B9044000B90440002C
:1000E000B9044000B9044000B9044000B90440001C
:1000F000B9044000B9044000B9044000B90440000C
:10010000B9044000B9044000B9044000B9044000FB
:10011000B9044000000000000000000000000000E2
:10012000B9044000B9044000B9044000B9044000DB
:10013000B9044000B9044000B9044000B9044000CB
:10014000B9044000B9044000B9044000B9044000BB
:10015000B9044000B9044000B9044000B9044000AB
:10016000B9044000B904400010B5054C237833B9F8
:10017000044B13B10448AFF300800123237010BD7A
:100180003404402000000000680840000C4B43B1DC
:100190000C480D4910B5AFF300800C48036823B933
:1001A00010BD0A48036833B97047094B002BF7D0DC
:1001B000BDE810401847064B002BF5D0184700BF8C
:1001C0000000000068084000380440206808400033
:1001D0000000000010B4174B1D22C3F80C21D3F807
:1001E0000C2142F01022C3F80C21134B01221A609B
:1001F000000280B21149014359604FF000719960CB
:100200004FF44371C3F89410596841F0800159606C
:10021000002159664FF40071D96609494FF000502A
:10022000C1F88001202481F81D4308605A625A6198
:1002300010BC704700060E4000C003400000842F31
:1002400000E100E03E4B0A22C3F80C21D3F80C2158
:1002500042F01022C3F80C210B22C3F80C21D3F872
:100260000C2142F01022C3F80C210C22C3F80C21FF
:10027000D3F80C2142F01022C3F80C211022C3F84D
:100280000C21D3F80C2142F01022C3F80C211122CA
:10029000C3F80C21D3F80C2142F01022C3F80C2132
:1002A00003F540631A6942F480721A61D3F8A02002
:1002B00042F48072C3F8A0205A6B42F480725A63F1
:1002C000A3F580635A6942F400625A61D3F8A02012
:1002D00042F40062C3F8A0205A6E42F400625A66EB
:1002E000D3F8902042F40062C3F890205A6D42F493
:1002F00000625A651A6A42F400621A62D3F88420D6
:1003000042F40062C3F884201A6F22F400621A6774
:100310005A6F22F400625A67D3F8C02042F4006298
:10032000C3F8C020D3F8D42042F40062C3F8D4202C
:10033000D3F8B02042F40062C3F8B020704700BF89
:1003400000060E40F8B5324A536843F40043536048
:10035000BFF34F8FBFF36F8F2E4B0021C3F85012A6
:10036000BFF34F8FBFF36F8F5A6942F400325A6167
:10037000BFF34F8FBFF36F8FC3F88410BFF34F8F5E
:10038000D3F88070C7F34E35C7F3C9076E014FEA43
:10039000877C43F6E07E1C4606EA0E0062463B463A
:1003A00042EA0001C4F86012013B02F14042B3F19D
:1003B000FF3FF5D1013D203EB5F1FF3FECD1BFF34A
:1003C0004F8F144B5A6942F480325A61BFF34F8FFA
:1003D000BFF36F8F104A11495160A1F580715160D0
:1003E000BFF34F8FBFF36F8FD3F8902222F001023B
:1003F000C3F89022D3F8942222F00102C3F8942289
:10040000BFF34F8FBFF36F8F054B9847F8BD00BF09
:1004100050180E4000ED00E0000C0E400C08005A91
:100420004502400010B4204B1E22C3F80C21D3F823
:100430000C2142F01022C3F80C211C4B0121196041
:10044000D3F8E4001A4A0243C3F8E420D3F8E420C6
:10045000C3F8E4205A6842F080625A609A689A6051
:100460009A689A60D3F8942042F00302C3F894206B
:10047000104A4FF08040C2F88001202482F81E43C9
:1004800010609A6919610221196112F4807F04D108
:100490001A46936913F4807FFBD0044A536A43F0F1
:1004A0001103536210BC704700060E400000044068
:1004B0000043414400E100E0FEE7000008B5174BAF
:1004C000174A9A4210D0174B144A9A420CD2013B59
:1004D0009B1A23F0030304331344114951F8040B0E
:1004E00042F8040B9A42F9D10F4B104A9A420AD2B1
:1004F000013B9B1A23F0030304331344002142F809
:10050000041B9342FBD10A4A0A4B23F07F039360FA
:10051000094B9847094B9847FEE700BF0000402071
:100520006808400034044020800440203404402007
:1005300000ED00E000004000D10640005105400001
:10054000014A024B1A607047001BB70000004020B0
:1005500008B5064B9847064B9847064B984703202B
:10056000054B9847054B9847FEE700BF4105400003
:100570006106400045034000D501400025044000CD
:10058000124A136B43F480731363114B1B6B13F00C
:10059000010F17D0536B43F4807353630C4B9B6E66
:1005A0000C4A136001210C4A11600C4A126B12F0C4
:1005B000010F07D0094A926912F4807F02D09BB2E2
:1005C000064AD3610222024B1A60704700120E40A5
:1005D00000C0034058044020500440200000044064
:1005E0007047000010490B6A104A1A40104B134321
:1005F0000B620A46936E13F0010FFBD00A4A116A90
:100600000C4B0B431362936E13F4803FFBD0064AEE
:10061000536A13F4803FFBD0034B586A80B2B0FAA0
:1006200080F04009704700BF00060E40FCC1C8FFC3
:10063000013E370000003701084B4FF000529A622C
:1006400002F5C11202F5F85201329A621A46936E0F
:1006500013F0020FFBD00020704700BF00060E40D1
:1006600008B5154AD2F8883043F47003C2F88830D0
:10067000BFF34F8FBFF36F8F104A114B1A60114BAE
:100680009847114B9847114A136B23F4407343F476
:1006900080731363936E13F0080FFBD00B4A136B38
:1006A00023F0030343F002031363936E13F0080F68
:1006B000FBD0002008BD00BF00ED00E000060004F4
:1006C000000C0E40E50540003906400000060E40D3
:1006D00070B50F4E0F4D761BB61018BF002405D015
:1006E000013455F8043B9847A642F9D10A4E0B4D08
:1006F000761B00F0A7F8B61018BF002406D001340E
:1007000055F8043B9847A642F9D170BD70BD00BFB3
:100710005008400050084000580840005008400071
:10072000024B13B1024800F005B87047000000000A
:1007300041074000002301461A46184600F01EB843
:1007400038B50A4C0A4D641BA4100AD004F180434A
:10075000013B05EB8305013C55F804399847002C13
:10076000F9D1BDE8384000F077B800BF6808400014
:1007700064084000704700BF704700BF2DE9F84390
:100780002C4D0646286898460F469146FFF7F2FF23
:10079000294B1C68D4F84831002B3ED05A681F2AD8
:1007A0001CDC02F1010E76B103EB82010124C1F8D9
:1007B0008890D3F8880194402043022EC3F8880122
:1007C000C1F8088123D00232C3F804E0286843F856
:1007D0002270FFF7D1FF0020BDE8F883174B0BB361
:1007E0004FF4C870AFF300800346D8B1D4F8482165
:1007F0000260002141600A46C4F848014FF0010E32
:10080000C0F88811C0F88C11002EDCD0CCE7D3F8EA
:100810008C110C43C3F88C41D5E704F5A673C4F8DA
:100820004831BBE72868FFF7A7FF4FF0FF30BDE86E
:10083000F88300BF30044020400840000000000062
:1008400008004020F8B500BFF8BC08BC9E467047C1
:10085000210740008D014000F8B500BFF8BC08BC7E
:080860009E467047690140004B
:10086800001BB7000000000000000000F402402058
:100878005C034020C403402000000000000000008A
:100888000000000000000000000000000000000060
:100898000000000000000000000000000000000050
:1008A8000000000000000000000000000000000040
:1008B8000000000000000000000000000000000030
:1008C8000000000000000000000000000000000020
:1008D8000000000000000000000000000000000010
:1008E8000000000000000000000000000000000000
:1008F80000000000000000000000000000000000F0
:1009080000000000000000000000000000000000DF
:1009180001000000000000000E33CDAB34126DE67C
:10092800ECDE05000B0000000000000000000000E5
:1009380000000000000000000000000000000000AF
:10094800000000000000000000000000000000009F
:10095800000000000000000000000000000000008F
:10096800000000000000000000000000000000007F
:040C98005C04402098
:0400000500400000B7
:00000001FF
