S01500004469676974616C46696C7465722E73726563EB
S214400000880A4020A9044000A5044000A5044000FA
S214400010A5044000A5044000A504400000000000E0
S214400020000000000000000000000000A5044000A2
S214400030A504400000000000A5044000A5044000C0
S214400040A5044000A5044000A5044000A5044000C7
S214400050A5044000A5044000A5044000A5044000B7
S214400060A504400000000000A5044000A504400090
S214400070A5044000A5044000A5044000A504400097
S214400080A5044000A5044000A5044000A504400087
S214400090A5044000A5044000A5044000D10540004A
S2144000A0A5044000A5044000A5044000A504400067
S2144000B0A50440007505400019064000A504400010
S2144000C0A5044000A5044000A5044000A504400047
S2144000D0A5044000A5044000A5044000A504400037
S2144000E0A5044000A5044000A5044000A504400027
S2144000F0A5044000A5044000A5044000A504400017
S214400100A5044000A5044000A5044000A504400006
S214400110A5044000000000000000000000000000B1
S214400120A5044000A5044000A5044000A5044000E6
S214400130A5044000A5044000A5044000A5044000D6
S214400140A5044000A5044000A5044000A5044000C6
S214400150A5044000A5044000A5044000A5044000B6
S214400160A5044000A504400010B5054C237833B9DB
S214400170044B13B10448AFF300800123237010BD35
S21440018034044020000000007C0B40000C4B43B180
S2144001900C480D4910B5AFF300800C48036823B9EE
S2144001A010BD0A48036833B97047094B002BF7D097
S2144001B0BDE810401847064B002BF5D0184700BF47
S2144001C0000000007C0B4000380440207C0B4000C0
S2144001D00000000010B4164B1D22C3F80C21D3F8C3
S2144001E00C2142F01022C3F80C21124B01221A6057
S2144001F0000280B21049014359604FF00071996087
S2144002004FF44371C3F89410002159664FF40071BF
S214400210D9660A494FF00050C1F88001202481F881
S2144002201D4308605A625A6102221A6010BC704729
S21440023000060E4000C003400000842F00E100E0AE
S214400240454B0A22C3F80C21D3F80C2142F0102269
S214400250C3F80C210B22C3F80C21D3F80C2142F032
S2144002601022C3F80C210C22C3F80C21D3F80C2121
S21440027042F01022C3F80C211022C3F80C21D3F808
S2144002800C2142F01022C3F80C211122C3F80C2195
S214400290D3F80C2142F01022C3F80C2103F540633A
S2144002A01A6942F480721A61D3F8A02042F4807230
S2144002B0C3F8A0205A6B42F480725A631A6942F41B
S2144002C080621A61D3F8A02042F48062C3F8A0206E
S2144002D05A6B42F480625A63A3F580635A6942F4CB
S2144002E000625A61D3F8A02042F40062C3F8A0200E
S2144002F05A6E42F400625A66D3F8902042F4006286
S214400300C3F890205A6D42F400625A651A6A42F465
S21440031000621A62D3F8842042F40062C3F8842054
S2144003201A6F22F400621A675A6F22F400625A6704
S214400330D3F8C02042F40062C3F8C020D3F8D420DB
S21440034042F40062C3F8D420D3F8B02042F40062EE
S214400350C3F8B020704700BF00060E40F8B5324ADA
S214400360536843F400435360BFF34F8FBFF36F8F20
S2144003702E4B0021C3F85012BFF34F8FBFF36F8F41
S2144003805A6942F400325A61BFF34F8FBFF36F8F02
S214400390C3F88410BFF34F8FD3F88070C7F34E3541
S2144003A0C7F3C9076E014FEA877C43F6E07E1C46DA
S2144003B006EA0E0062463B4642EA0001C4F8601276
S2144003C0013B02F14042B3F1FF3FF5D1013D203EF3
S2144003D0B5F1FF3FECD1BFF34F8F144B5A6942F44F
S2144003E080325A61BFF34F8FBFF36F8F104A114967
S2144003F05160A1F580715160BFF34F8FBFF36F8F8F
S214400400D3F8902222F00102C3F89022D3F8942227
S21440041022F00102C3F89422BFF34F8FBFF36F8FD1
S214400420054B9847F8BD00BF50180E4000ED00E061
S214400430000C0E400C08005A41024000164B1E228B
S214400440C3F80C21D3F80C2142F01022C3F80C213B
S214400450124B01211960D3F8E400114A0243C3F855
S214400460E420D3F8E420C3F8E4205A6842F07062EF
S2144004705A609A689A60D3F8942042F00302C3F810
S21440048094209A69196112F4807F04D11A469369C0
S21440049013F4807FFBD0704700060E4000000440F7
S2144004A000434144FEE7000008B5174B174A9A42FE
S2144004B010D0174B144A9A420CD2013B9B1A23F099
S2144004C0030304331344114951F8040B42F8040B58
S2144004D09A42F9D10F4B104A9A420AD2013B9B1AD4
S2144004E023F0030304331344002142F8041B9342D1
S2144004F0FBD10A4A0A4B23F07F039360094B984787
S214400500094B9847FEE700BF000040207C0B4000A8
S21440051034044020840440203404402000ED00E0B1
S21440052000004000E50940003D054000014A024BFE
S2144005301A607047001BB7000000402008B5074B04
S2144005409847074B9847074B9847074B98470320D1
S214400550064B9847064B984700BFFDE72D054000E1
S214400560990640005D03400009074000D501400061
S2144005703D04400008B5104B1B6B13F0010F19D01B
S2144005800D4B986E0D4B98470D4B186001220D4B46
S2144005901A600D4B1B6B13F0010F09D00A4B9B6979
S2144005A013F4807F04D0094B984780B2064BD8613D
S2144005B0054B1B6B08BD00BF00C00340F50840005C
S2144005C05C0440205004402000000440A509400040
S2144005D00D4B1B680D4A126B13F0100F0DD00C4BD1
S2144005E01B6853B10222094B1A600022084B1A605E
S2144005F0084A536B43F480735363064A136B43F4C1
S21440060080731363704700BF20C0004000C00340A3
S2144006105004402000120E407047000010490B6AFC
S214400620104A1A40104B13430B620A46936E13F05F
S214400630010FFBD00A4A116A0C4B0B431362936EB0
S21440064013F4803FFBD0064A536A13F4803FFBD036
S214400650034B586A80B2B0FA80F04009704700BF3A
S21440066000060E40FCC1C8FF013E370000003701BF
S214400670084B4FF000529A6202F5C11202F5F8524A
S21440068001329A621A46936E13F0020FFBD0002096
S214400690704700BF00060E4008B5154AD2F88830AD
S2144006A043F47003C2F88830BFF34F8FBFF36F8FA9
S2144006B0104A114B1A60114B9847114B9847114AF4
S2144006C0136B23F4407343F480731363936E13F0F9
S2144006D0080FFBD00B4A136B23F0030343F00203CF
S2144006E01363936E13F0080FFBD0002008BD00BFC5
S2144006F000ED00E000060004000C0E401D06400021
S2144007007106400000060E401B4B4FF40002C3F833
S2144007108021202183F817131A60184BD3F80C2138
S21440072042F01702C3F80C21D3F80C2142F01022F5
S214400730C3F80C21A3F55423A3F2FC531A6842F0E5
S21440074001021A600E490A6842F010020A601A68EE
S21440075042F480421A60043B1A6842F001021A6072
S214400760BB21084A11601A6842F001021A601A68F2
S21440077042F004021A60704700E100E000060E40B6
S21440078024C000401CC0004080F0004002E000BF93
S21440079081F0004142001FBF5FEA410392EA030F27
S2144007A07FEA226C7FEA236C6AD04FEA1262D2EB71
S2144007B01363C1BFD218414048404140B8BF5B4276
S2144007C0192B88BF704710F0004F40F4000020F00F
S2144007D07F4018BF404211F0004F41F4000121F025
S2144007E07F4118BF494292EA030F3FD0A2F101026F
S2144007F041FA03FC10EB0C00C3F1200301FA03F1AD
S21440080000F0004302D5494260EB4000B0F5000FCF
S21440081013D3B0F1807F06D340084FEA310102F18E
S2144008200102FE2A51D2B1F1004F40EBC25008BF40
S21440083020F0010040EA03007047490040EB00000A
S21440084010F4000FA2F10102EDD1B0FA80FCACF139
S214400850080CB2EB0C0200FA0CF0AABF00EBC25038
S21440086052421843BCBFD0401843704792F0000F26
S21440087081F4000106BF80F400000132013BB5E779
S2144008804FEA41037FEA226C18BF7FEA236C21D0EF
S21440089092EA030F04D092F0000F08BF0846704754
S2144008A090EA010F1CBF0020704712F07F4F04D122
S2144008B0400028BF40F00040704712F100723CBF35
S2144008C000F50000704700F0004343F0FE4040F45F
S2144008D0000070477FEA226216BF08467FEA23631D
S2144008E00146420206BF5FEA412390EA010F40F408
S2144008F0800070474FF0000304E000BF10F0004354
S21440090048BF40425FEA000C08BF704743F096433A
S21440091001464FF000001CE050EA010208BF704755
S2144009204FF000030AE000BF50EA010208BF7047DC
S21440093011F0004302D5404261EB41015FEA010CF1
S21440094002BF84460146002043F0B64308BFA3F1E9
S2144009508053A3F50003BCFA8CF2083AA3EBC253CB
S21440096010DB01FA02FC634400FA02FCC2F12002EA
S214400970BCF1004F20FA02F243EB020008BF20F021
S2144009800100704702F1200201FA02FCC2F1200287
S21440099050EA4C0021FA02F243EB020008BF20EA7C
S2144009A0DC70704742000ED2B2F1FE4F0BD34FF0D0
S2144009B09E03B3EB126209D44FEA002343F0004390
S2144009C023FA02F070474FF00000704712F1610FB3
S2144009D001D1420202D14FF0FF3070474FF0000085
S2144009E0704700BF70B50F4E0F4D761BB61018BF40
S2144009F0002405D0013455F8043B9847A642F9D167
S214400A000A4E0B4D761B00F0A7F8B61018BF002410
S214400A1006D0013455F8043B9847A642F9D170BD3C
S214400A2070BD00BF640B4000640B40006C0B400080
S214400A30640B4000024B13B1024800F005B8704703
S214400A4000000000550A4000002301461A4618469A
S214400A5000F01EB838B50A4C0A4D641BA4100AD0E4
S214400A6004F18043013B05EB8305013C55F804390E
S214400A709847002CF9D1BDE8384000F077B800BF61
S214400A807C0B4000780B4000704700BF704700BFAB
S214400A902DE9F8432C4D0646286898460F46914661
S214400AA0FFF7F2FF294B1C68D4F84831002B3ED0A4
S214400AB05A681F2A1CDC02F1010E76B103EB820154
S214400AC00124C1F88890D3F8880194402043022E30
S214400AD0C3F88801C1F8088123D00232C3F804E085
S214400AE0286843F82270FFF7D1FF0020BDE8F8835E
S214400AF0174B0BB34FF4C870AFF300800346D8B122
S214400B00D4F848210260002141600A46C4F84801F2
S214400B104FF0010EC0F88811C0F88C11002EDCD0C2
S214400B20CCE7D3F88C110C43C3F88C41D5E704F5D9
S214400B30A673C4F84831BBE72868FFF7A7FF4FF015
S214400B40FF30BDE8F88300BF30044020540B40001F
S214400B500000000008004020F8B500BFF8BC08BC04
S214400B609E467047350A40008D014000F8B500BFEC
S210400B70F8BC08BC9E4670476901400077
S214400B7C001BB7000000000000000000F4024020FC
S214400B8C5C034020C403402000000000000000002E
S214400B9C0000000000000000000000000000000004
S214400BAC00000000000000000000000000000000F4
S214400BBC00000000000000000000000000000000E4
S214400BCC00000000000000000000000000000000D4
S214400BDC00000000000000000000000000000000C4
S214400BEC00000000000000000000000000000000B4
S214400BFC00000000000000000000000000000000A4
S214400C0C0000000000000000000000000000000093
S214400C1C0000000000000000000000000000000083
S214400C2C01000000000000000E33CDAB34126DE620
S214400C3CECDE05000B000000000000000000000089
S214400C4C0000000000000000000000000000000053
S214400C5C0000000000000000000000000000000043
S214400C6C0000000000000000000000000000000033
S214400C7C0000000000000000000000000000000023
S208400FAC6004402038
S804400000BB
